10:58:14.905 [info]   OUT [WARMM_CLIENTSIM]:  8=FIX.4.4|9=193|35=D|49=W_TCLT1|56=W_SMTC1|34=2220|43=N|52=20170819-14:58:14.905|11=WARMUP1347249319|59=0|22=5|48=VODl.CHI|38=2|44=1.1|15=GBP|40=2|54=1|55=X|21=1|60=20170819-14:58:14.905|526=WARMUP13472493190|10=015|
10:58:14.905 [info]    IN [WARMM_OM2CLT]: 8=FIX.4.4|9=193|35=D|49=W_TCLT1|56=W_SMTC1|34=2220|43=N|52=20170819-14:58:14.905|11=WARMUP1347249319|59=0|22=5|48=VODl.CHI|38=2|44=1.1|15=GBP|40=2|54=1|55=X|21=1|60=20170819-14:58:14.905|526=WARMUP13472493190|10=015|
10:58:14.905 [Warn]  WARMM_OM_2_SRV Slow consumer delayed write : 8 micros , numWrites=1
10:58:14.905 [info]   OUT [WARMM_OM_2_SRV]:  8=FIX.4.4|9=198|35=D|49=W_SMTE1|56=W_TEXE1|34=2167|43=N|52=20170819-14:58:14.905|11=WARMUP1347249319|59=0|22=5|48=VODl.CHI|38=2|44=1.1|15=GBP|40=2|54=1|55=X|21=1|60=20170819-14:58:14.905|526=WARMUP1347249319|528=P|10=028|
10:58:14.905 [info]    IN [WARMM_EXSIM]: 8=FIX.4.4|9=198|35=D|49=W_SMTE1|56=W_TEXE1|34=2167|43=N|52=20170819-14:58:14.905|11=WARMUP1347249319|59=0|22=5|48=VODl.CHI|38=2|44=1.1|15=GBP|40=2|54=1|55=X|21=1|60=20170819-14:58:14.905|526=WARMUP1347249319|528=P|10=028|
10:58:14.905 [info]   OUT [WARMM_EXSIM]:  8=FIX.4.4|9=200|35=8|49=W_TEXE1|56=W_SMTE1|34=2167|43=N|52=20170819-14:58:14.905|11=WARMUP1347249319|17=90WARMUP13472493191002166|37=9991002166|39=0|150=0|38=2|44=1.1|54=1|55=X|15=GBP|22=5|48=VODl.CHI|6=0|14=0|151=2|10=016|
10:58:14.905 [info]    IN [WARMM_OM_2_SRV]: 8=FIX.4.4|9=200|35=8|49=W_TEXE1|56=W_SMTE1|34=2167|43=N|52=20170819-14:58:14.905|11=WARMUP1347249319|17=90WARMUP13472493191002166|37=9991002166|39=0|150=0|38=2|44=1.1|54=1|55=X|15=GBP|22=5|48=VODl.CHI|6=0|14=0|151=2|10=016|
10:58:14.905 [info]  MemMapPageMgr PRELOADED getPage delay us=4 page=131 name=WARMM_OM2CLT_CLT_OUT
10:58:14.905 [Warn]  WARMM_OM2CLT Slow consumer delayed write : 11 micros , numWrites=1
10:58:14.905 [info]   OUT [WARMM_OM2CLT]:  8=FIX.4.4|9=200|35=8|49=W_SMTC1|56=W_TCLT1|34=2220|43=N|52=20170819-14:58:14.905|11=WARMUP1347249319|17=90WARMUP13472493191002166|37=9991002166|39=0|150=0|38=2|44=1.1|54=1|55=X|15=GBP|22=5|48=VODl.CHI|6=0|14=0|151=2|10=005|     [25,62,40]
10:58:14.905 [info]    IN [WARMM_CLIENTSIM]: 8=FIX.4.4|9=200|35=8|49=W_SMTC1|56=W_TCLT1|34=2220|43=N|52=20170819-14:58:14.905|11=WARMUP1347249319|17=90WARMUP13472493191002166|37=9991002166|39=0|150=0|38=2|44=1.1|54=1|55=X|15=GBP|22=5|48=VODl.CHI|6=0|14=0|151=2|10=005|
10:58:14.905 [info]  MemMapPageMgr PRELOADED getPage delay us=4 page=131 name=WARMM_CLIENTSIM_CLTSIM_IN
10:58:14.906 [Warn]  WARMM_CLIENTSIM Slow consumer delayed write : 27 micros , numWrites=1
10:58:14.906 [info]   OUT [WARMM_CLIENTSIM]:  8=FIX.4.4|9=193|35=D|49=W_TCLT1|56=W_SMTC1|34=2221|43=N|52=20170819-14:58:14.906|11=WARMUP1347249320|59=0|22=5|48=VODl.CHI|38=2|44=1.1|15=GBP|40=2|54=1|55=X|21=1|60=20170819-14:58:14.906|526=WARMUP13472493200|10=002|
10:58:14.906 [info]    IN [WARMM_OM2CLT]: 8=FIX.4.4|9=193|35=D|49=W_TCLT1|56=W_SMTC1|34=2221|43=N|52=20170819-14:58:14.906|11=WARMUP1347249320|59=0|22=5|48=VODl.CHI|38=2|44=1.1|15=GBP|40=2|54=1|55=X|21=1|60=20170819-14:58:14.906|526=WARMUP13472493200|10=002|
10:58:14.906 [Warn]  WARMM_OM_2_SRV Slow consumer delayed write : 19 micros , numWrites=1
10:58:14.906 [info]   OUT [WARMM_OM_2_SRV]:  8=FIX.4.4|9=198|35=D|49=W_SMTE1|56=W_TEXE1|34=2168|43=N|52=20170819-14:58:14.906|11=WARMUP1347249320|59=0|22=5|48=VODl.CHI|38=2|44=1.1|15=GBP|40=2|54=1|55=X|21=1|60=20170819-14:58:14.906|526=WARMUP1347249320|528=P|10=015|
10:58:14.906 [info]    IN [WARMM_EXSIM]: 8=FIX.4.4|9=198|35=D|49=W_SMTE1|56=W_TEXE1|34=2168|43=N|52=20170819-14:58:14.906|11=WARMUP1347249320|59=0|22=5|48=VODl.CHI|38=2|44=1.1|15=GBP|40=2|54=1|55=X|21=1|60=20170819-14:58:14.906|526=WARMUP1347249320|528=P|10=015|
10:58:14.906 [info]   OUT [WARMM_EXSIM]:  8=FIX.4.4|9=200|35=8|49=W_TEXE1|56=W_SMTE1|34=2168|43=N|52=20170819-14:58:14.906|11=WARMUP1347249320|17=90WARMUP13472493201002167|37=9991002167|39=0|150=0|38=2|44=1.1|54=1|55=X|15=GBP|22=5|48=VODl.CHI|6=0|14=0|151=2|10=004|
10:58:14.906 [info]    IN [WARMM_OM_2_SRV]: 8=FIX.4.4|9=200|35=8|49=W_TEXE1|56=W_SMTE1|34=2168|43=N|52=20170819-14:58:14.906|11=WARMUP1347249320|17=90WARMUP13472493201002167|37=9991002167|39=0|150=0|38=2|44=1.1|54=1|55=X|15=GBP|22=5|48=VODl.CHI|6=0|14=0|151=2|10=004|
10:58:14.906 [Warn]  WARMM_OM2CLT Slow consumer delayed write : 7 micros , numWrites=1
10:58:14.906 [info]   OUT [WARMM_OM2CLT]:  8=FIX.4.4|9=200|35=8|49=W_SMTC1|56=W_TCLT1|34=2221|43=N|52=20170819-14:58:14.906|11=WARMUP1347249320|17=90WARMUP13472493201002167|37=9991002167|39=0|150=0|38=2|44=1.1|54=1|55=X|15=GBP|22=5|48=VODl.CHI|6=0|14=0|151=2|10=249|     [63,104,31]
10:58:14.906 [info]    IN [WARMM_CLIENTSIM]: 8=FIX.4.4|9=200|35=8|49=W_SMTC1|56=W_TCLT1|34=2221|43=N|52=20170819-14:58:14.906|11=WARMUP1347249320|17=90WARMUP13472493201002167|37=9991002167|39=0|150=0|38=2|44=1.1|54=1|55=X|15=GBP|22=5|48=VODl.CHI|6=0|14=0|151=2|10=249|
10:58:14.907 [Warn]  WARMM_CLIENTSIM Slow consumer delayed write : 14 micros , numWrites=1
10:58:14.907 [info]   OUT [WARMM_CLIENTSIM]:  8=FIX.4.4|9=193|35=D|49=W_TCLT1|56=W_SMTC1|34=2222|43=N|52=20170819-14:58:14.907|11=WARMUP1347249321|59=0|22=5|48=VODl.CHI|38=2|44=1.1|15=GBP|40=2|54=1|55=X|21=1|60=20170819-14:58:14.907|526=WARMUP13472493210|10=007|
10:58:14.907 [info]    IN [WARMM_OM2CLT]: 8=FIX.4.4|9=193|35=D|49=W_TCLT1|56=W_SMTC1|34=2222|43=N|52=20170819-14:58:14.907|11=WARMUP1347249321|59=0|22=5|48=VODl.CHI|38=2|44=1.1|15=GBP|40=2|54=1|55=X|21=1|60=20170819-14:58:14.907|526=WARMUP13472493210|10=007|
10:58:14.907 [Warn]  WARMM_OM_2_SRV Slow consumer delayed write : 8 micros , numWrites=1
10:58:14.907 [info]   OUT [WARMM_OM_2_SRV]:  8=FIX.4.4|9=198|35=D|49=W_SMTE1|56=W_TEXE1|34=2169|43=N|52=20170819-14:58:14.907|11=WARMUP1347249321|59=0|22=5|48=VODl.CHI|38=2|44=1.1|15=GBP|40=2|54=1|55=X|21=1|60=20170819-14:58:14.907|526=WARMUP1347249321|528=P|10=020|
10:58:14.907 [info]    IN [WARMM_EXSIM]: 8=FIX.4.4|9=198|35=D|49=W_SMTE1|56=W_TEXE1|34=2169|43=N|52=20170819-14:58:14.907|11=WARMUP1347249321|59=0|22=5|48=VODl.CHI|38=2|44=1.1|15=GBP|40=2|54=1|55=X|21=1|60=20170819-14:58:14.907|526=WARMUP1347249321|528=P|10=020|
10:58:14.907 [info]   OUT [WARMM_EXSIM]:  8=FIX.4.4|9=200|35=8|49=W_TEXE1|56=W_SMTE1|34=2169|43=N|52=20170819-14:58:14.907|11=WARMUP1347249321|17=90WARMUP13472493211002168|37=9991002168|39=0|150=0|38=2|44=1.1|54=1|55=X|15=GBP|22=5|48=VODl.CHI|6=0|14=0|151=2|10=010|
10:58:14.907 [info]    IN [WARMM_OM_2_SRV]: 8=FIX.4.4|9=200|35=8|49=W_TEXE1|56=W_SMTE1|34=2169|43=N|52=20170819-14:58:14.907|11=WARMUP1347249321|17=90WARMUP13472493211002168|37=9991002168|39=0|150=0|38=2|44=1.1|54=1|55=X|15=GBP|22=5|48=VODl.CHI|6=0|14=0|151=2|10=010|
10:58:14.907 [Warn]  WARMM_OM2CLT Slow consumer delayed write : 7 micros , numWrites=1
10:58:14.907 [info]   OUT [WARMM_OM2CLT]:  8=FIX.4.4|9=200|35=8|49=W_SMTC1|56=W_TCLT1|34=2222|43=N|52=20170819-14:58:14.907|11=WARMUP1347249321|17=90WARMUP13472493211002168|37=9991002168|39=0|150=0|38=2|44=1.1|54=1|55=X|15=GBP|22=5|48=VODl.CHI|6=0|14=0|151=2|10=255|     [39,61,24]
10:58:14.907 [info]    IN [WARMM_CLIENTSIM]: 8=FIX.4.4|9=200|35=8|49=W_SMTC1|56=W_TCLT1|34=2222|43=N|52=20170819-14:58:14.907|11=WARMUP1347249321|17=90WARMUP13472493211002168|37=9991002168|39=0|150=0|38=2|44=1.1|54=1|55=X|15=GBP|22=5|48=VODl.CHI|6=0|14=0|151=2|10=255|
10:58:14.908 [Warn]  WARMM_CLIENTSIM Slow consumer delayed write : 8 micros , numWrites=1
10:58:14.908 [info]   OUT [WARMM_CLIENTSIM]:  8=FIX.4.4|9=193|35=D|49=W_TCLT1|56=W_SMTC1|34=2223|43=N|52=20170819-14:58:14.908|11=WARMUP1347249322|59=0|22=5|48=VODl.CHI|38=2|44=1.1|15=GBP|40=2|54=1|55=X|21=1|60=20170819-14:58:14.908|526=WARMUP13472493220|10=012|
10:58:14.908 [info]    IN [WARMM_OM2CLT]: 8=FIX.4.4|9=193|35=D|49=W_TCLT1|56=W_SMTC1|34=2223|43=N|52=20170819-14:58:14.908|11=WARMUP1347249322|59=0|22=5|48=VODl.CHI|38=2|44=1.1|15=GBP|40=2|54=1|55=X|21=1|60=20170819-14:58:14.908|526=WARMUP13472493220|10=012|
10:58:14.909 [Warn]  WARMM_OM_2_SRV Slow consumer delayed write : 12 micros , numWrites=1
10:58:14.909 [info]   OUT [WARMM_OM_2_SRV]:  8=FIX.4.4|9=198|35=D|49=W_SMTE1|56=W_TEXE1|34=2170|43=N|52=20170819-14:58:14.909|11=WARMUP1347249322|59=0|22=5|48=VODl.CHI|38=2|44=1.1|15=GBP|40=2|54=1|55=X|21=1|60=20170819-14:58:14.909|526=WARMUP1347249322|528=P|10=018|
10:58:14.909 [info]    IN [WARMM_EXSIM]: 8=FIX.4.4|9=198|35=D|49=W_SMTE1|56=W_TEXE1|34=2170|43=N|52=20170819-14:58:14.909|11=WARMUP1347249322|59=0|22=5|48=VODl.CHI|38=2|44=1.1|15=GBP|40=2|54=1|55=X|21=1|60=20170819-14:58:14.909|526=WARMUP1347249322|528=P|10=018|
10:58:14.909 [info]   OUT [WARMM_EXSIM]:  8=FIX.4.4|9=200|35=8|49=W_TEXE1|56=W_SMTE1|34=2170|43=N|52=20170819-14:58:14.909|11=WARMUP1347249322|17=90WARMUP13472493221002169|37=9991002169|39=0|150=0|38=2|44=1.1|54=1|55=X|15=GBP|22=5|48=VODl.CHI|6=0|14=0|151=2|10=008|
10:58:14.909 [info]    IN [WARMM_OM_2_SRV]: 8=FIX.4.4|9=200|35=8|49=W_TEXE1|56=W_SMTE1|34=2170|43=N|52=20170819-14:58:14.909|11=WARMUP1347249322|17=90WARMUP13472493221002169|37=9991002169|39=0|150=0|38=2|44=1.1|54=1|55=X|15=GBP|22=5|48=VODl.CHI|6=0|14=0|151=2|10=008|
10:58:14.909 [Warn]  WARMM_OM2CLT Slow consumer delayed write : 5 micros , numWrites=1
10:58:14.909 [info]   OUT [WARMM_OM2CLT]:  8=FIX.4.4|9=200|35=8|49=W_SMTC1|56=W_TCLT1|34=2223|43=N|52=20170819-14:58:14.909|11=WARMUP1347249322|17=90WARMUP13472493221002169|37=9991002169|39=0|150=0|38=2|44=1.1|54=1|55=X|15=GBP|22=5|48=VODl.CHI|6=0|14=0|151=2|10=006|     [44,85,24]
10:58:14.909 [info]    IN [WARMM_CLIENTSIM]: 8=FIX.4.4|9=200|35=8|49=W_SMTC1|56=W_TCLT1|34=2223|43=N|52=20170819-14:58:14.909|11=WARMUP1347249322|17=90WARMUP13472493221002169|37=9991002169|39=0|150=0|38=2|44=1.1|54=1|55=X|15=GBP|22=5|48=VODl.CHI|6=0|14=0|151=2|10=006|
10:58:14.910 [Warn]  WARMM_CLIENTSIM Slow consumer delayed write : 7 micros , numWrites=1
10:58:14.910 [info]   OUT [WARMM_CLIENTSIM]:  8=FIX.4.4|9=193|35=D|49=W_TCLT1|56=W_SMTC1|34=2224|43=N|52=20170819-14:58:14.910|11=WARMUP1347249323|59=0|22=5|48=VODl.CHI|38=2|44=1.1|15=GBP|40=2|54=1|55=X|21=1|60=20170819-14:58:14.910|526=WARMUP13472493230|10=001|
10:58:14.910 [info]    IN [WARMM_OM2CLT]: 8=FIX.4.4|9=193|35=D|49=W_TCLT1|56=W_SMTC1|34=2224|43=N|52=20170819-14:58:14.910|11=WARMUP1347249323|59=0|22=5|48=VODl.CHI|38=2|44=1.1|15=GBP|40=2|54=1|55=X|21=1|60=20170819-14:58:14.910|526=WARMUP13472493230|10=001|
10:58:14.910 [Warn]  WARMM_OM_2_SRV Slow consumer delayed write : 6 micros , numWrites=1
10:58:14.910 [info]   OUT [WARMM_OM_2_SRV]:  8=FIX.4.4|9=198|35=D|49=W_SMTE1|56=W_TEXE1|34=2171|43=N|52=20170819-14:58:14.910|11=WARMUP1347249323|59=0|22=5|48=VODl.CHI|38=2|44=1.1|15=GBP|40=2|54=1|55=X|21=1|60=20170819-14:58:14.910|526=WARMUP1347249323|528=P|10=005|
10:58:14.910 [info]    IN [WARMM_EXSIM]: 8=FIX.4.4|9=198|35=D|49=W_SMTE1|56=W_TEXE1|34=2171|43=N|52=20170819-14:58:14.910|11=WARMUP1347249323|59=0|22=5|48=VODl.CHI|38=2|44=1.1|15=GBP|40=2|54=1|55=X|21=1|60=20170819-14:58:14.910|526=WARMUP1347249323|528=P|10=005|
10:58:14.910 [info]   OUT [WARMM_EXSIM]:  8=FIX.4.4|9=200|35=8|49=W_TEXE1|56=W_SMTE1|34=2171|43=N|52=20170819-14:58:14.910|11=WARMUP1347249323|17=90WARMUP13472493231002170|37=9991002170|39=0|150=0|38=2|44=1.1|54=1|55=X|15=GBP|22=5|48=VODl.CHI|6=0|14=0|151=2|10=243|
10:58:14.910 [info]    IN [WARMM_OM_2_SRV]: 8=FIX.4.4|9=200|35=8|49=W_TEXE1|56=W_SMTE1|34=2171|43=N|52=20170819-14:58:14.910|11=WARMUP1347249323|17=90WARMUP13472493231002170|37=9991002170|39=0|150=0|38=2|44=1.1|54=1|55=X|15=GBP|22=5|48=VODl.CHI|6=0|14=0|151=2|10=243|
10:58:14.910 [Warn]  WARMM_OM2CLT Slow consumer delayed write : 5 micros , numWrites=1
10:58:14.910 [info]   OUT [WARMM_OM2CLT]:  8=FIX.4.4|9=200|35=8|49=W_SMTC1|56=W_TCLT1|34=2224|43=N|52=20170819-14:58:14.910|11=WARMUP1347249323|17=90WARMUP13472493231002170|37=9991002170|39=0|150=0|38=2|44=1.1|54=1|55=X|15=GBP|22=5|48=VODl.CHI|6=0|14=0|151=2|10=241|     [17,51,13]
10:58:14.910 [info]    IN [WARMM_CLIENTSIM]: 8=FIX.4.4|9=200|35=8|49=W_SMTC1|56=W_TCLT1|34=2224|43=N|52=20170819-14:58:14.910|11=WARMUP1347249323|17=90WARMUP13472493231002170|37=9991002170|39=0|150=0|38=2|44=1.1|54=1|55=X|15=GBP|22=5|48=VODl.CHI|6=0|14=0|151=2|10=241|
10:58:14.911 [Warn]  WARMM_CLIENTSIM Slow consumer delayed write : 5 micros , numWrites=1
10:58:14.911 [info]   OUT [WARMM_CLIENTSIM]:  8=FIX.4.4|9=193|35=D|49=W_TCLT1|56=W_SMTC1|34=2225|43=N|52=20170819-14:58:14.911|11=WARMUP1347249324|59=0|22=5|48=VODl.CHI|38=2|44=1.1|15=GBP|40=2|54=1|55=X|21=1|60=20170819-14:58:14.911|526=WARMUP13472493240|10=006|
10:58:14.911 [info]    IN [WARMM_OM2CLT]: 8=FIX.4.4|9=193|35=D|49=W_TCLT1|56=W_SMTC1|34=2225|43=N|52=20170819-14:58:14.911|11=WARMUP1347249324|59=0|22=5|48=VODl.CHI|38=2|44=1.1|15=GBP|40=2|54=1|55=X|21=1|60=20170819-14:58:14.911|526=WARMUP13472493240|10=006|
10:58:14.911 [Warn]  WARMM_OM_2_SRV Slow consumer delayed write : 12 micros , numWrites=1
10:58:14.911 [info]   OUT [WARMM_OM_2_SRV]:  8=FIX.4.4|9=198|35=D|49=W_SMTE1|56=W_TEXE1|34=2172|43=N|52=20170819-14:58:14.911|11=WARMUP1347249324|59=0|22=5|48=VODl.CHI|38=2|44=1.1|15=GBP|40=2|54=1|55=X|21=1|60=20170819-14:58:14.911|526=WARMUP1347249324|528=P|10=010|
10:58:14.911 [info]    IN [WARMM_EXSIM]: 8=FIX.4.4|9=198|35=D|49=W_SMTE1|56=W_TEXE1|34=2172|43=N|52=20170819-14:58:14.911|11=WARMUP1347249324|59=0|22=5|48=VODl.CHI|38=2|44=1.1|15=GBP|40=2|54=1|55=X|21=1|60=20170819-14:58:14.911|526=WARMUP1347249324|528=P|10=010|
10:58:14.911 [info]   OUT [WARMM_EXSIM]:  8=FIX.4.4|9=200|35=8|49=W_TEXE1|56=W_SMTE1|34=2172|43=N|52=20170819-14:58:14.911|11=WARMUP1347249324|17=90WARMUP13472493241002171|37=9991002171|39=0|150=0|38=2|44=1.1|54=1|55=X|15=GBP|22=5|48=VODl.CHI|6=0|14=0|151=2|10=249|
10:58:14.911 [info]    IN [WARMM_OM_2_SRV]: 8=FIX.4.4|9=200|35=8|49=W_TEXE1|56=W_SMTE1|34=2172|43=N|52=20170819-14:58:14.911|11=WARMUP1347249324|17=90WARMUP13472493241002171|37=9991002171|39=0|150=0|38=2|44=1.1|54=1|55=X|15=GBP|22=5|48=VODl.CHI|6=0|14=0|151=2|10=249|
10:58:14.911 [Warn]  WARMM_OM2CLT Slow consumer delayed write : 6 micros , numWrites=1
10:58:14.911 [info]   OUT [WARMM_OM2CLT]:  8=FIX.4.4|9=200|35=8|49=W_SMTC1|56=W_TCLT1|34=2225|43=N|52=20170819-14:58:14.911|11=WARMUP1347249324|17=90WARMUP13472493241002171|37=9991002171|39=0|150=0|38=2|44=1.1|54=1|55=X|15=GBP|22=5|48=VODl.CHI|6=0|14=0|151=2|10=247|     [25,94,18]
10:58:14.911 [info]    IN [WARMM_CLIENTSIM]: 8=FIX.4.4|9=200|35=8|49=W_SMTC1|56=W_TCLT1|34=2225|43=N|52=20170819-14:58:14.911|11=WARMUP1347249324|17=90WARMUP13472493241002171|37=9991002171|39=0|150=0|38=2|44=1.1|54=1|55=X|15=GBP|22=5|48=VODl.CHI|6=0|14=0|151=2|10=247|
10:58:14.912 [Warn]  WARMM_CLIENTSIM Slow consumer delayed write : 8 micros , numWrites=1
10:58:14.912 [info]   OUT [WARMM_CLIENTSIM]:  8=FIX.4.4|9=193|35=D|49=W_TCLT1|56=W_SMTC1|34=2226|43=N|52=20170819-14:58:14.912|11=WARMUP1347249325|59=0|22=5|48=VODl.CHI|38=2|44=1.1|15=GBP|40=2|54=1|55=X|21=1|60=20170819-14:58:14.912|526=WARMUP13472493250|10=011|
10:58:14.912 [info]    IN [WARMM_OM2CLT]: 8=FIX.4.4|9=193|35=D|49=W_TCLT1|56=W_SMTC1|34=2226|43=N|52=20170819-14:58:14.912|11=WARMUP1347249325|59=0|22=5|48=VODl.CHI|38=2|44=1.1|15=GBP|40=2|54=1|55=X|21=1|60=20170819-14:58:14.912|526=WARMUP13472493250|10=011|
10:58:14.912 [Warn]  WARMM_OM_2_SRV Slow consumer delayed write : 9 micros , numWrites=1
10:58:14.912 [info]   OUT [WARMM_OM_2_SRV]:  8=FIX.4.4|9=198|35=D|49=W_SMTE1|56=W_TEXE1|34=2173|43=N|52=20170819-14:58:14.912|11=WARMUP1347249325|59=0|22=5|48=VODl.CHI|38=2|44=1.1|15=GBP|40=2|54=1|55=X|21=1|60=20170819-14:58:14.912|526=WARMUP1347249325|528=P|10=015|
10:58:14.912 [info]    IN [WARMM_EXSIM]: 8=FIX.4.4|9=198|35=D|49=W_SMTE1|56=W_TEXE1|34=2173|43=N|52=20170819-14:58:14.912|11=WARMUP1347249325|59=0|22=5|48=VODl.CHI|38=2|44=1.1|15=GBP|40=2|54=1|55=X|21=1|60=20170819-14:58:14.912|526=WARMUP1347249325|528=P|10=015|
10:58:14.912 [info]   OUT [WARMM_EXSIM]:  8=FIX.4.4|9=200|35=8|49=W_TEXE1|56=W_SMTE1|34=2173|43=N|52=20170819-14:58:14.912|11=WARMUP1347249325|17=90WARMUP13472493251002172|37=9991002172|39=0|150=0|38=2|44=1.1|54=1|55=X|15=GBP|22=5|48=VODl.CHI|6=0|14=0|151=2|10=255|
10:58:14.912 [info]    IN [WARMM_OM_2_SRV]: 8=FIX.4.4|9=200|35=8|49=W_TEXE1|56=W_SMTE1|34=2173|43=N|52=20170819-14:58:14.912|11=WARMUP1347249325|17=90WARMUP13472493251002172|37=9991002172|39=0|150=0|38=2|44=1.1|54=1|55=X|15=GBP|22=5|48=VODl.CHI|6=0|14=0|151=2|10=255|
10:58:14.912 [Warn]  WARMM_OM2CLT Slow consumer delayed write : 9 micros , numWrites=1
10:58:14.912 [info]   OUT [WARMM_OM2CLT]:  8=FIX.4.4|9=200|35=8|49=W_SMTC1|56=W_TCLT1|34=2226|43=N|52=20170819-14:58:14.912|11=WARMUP1347249325|17=90WARMUP13472493251002172|37=9991002172|39=0|150=0|38=2|44=1.1|54=1|55=X|15=GBP|22=5|48=VODl.CHI|6=0|14=0|151=2|10=253|     [50,60,19]
10:58:14.912 [info]    IN [WARMM_CLIENTSIM]: 8=FIX.4.4|9=200|35=8|49=W_SMTC1|56=W_TCLT1|34=2226|43=N|52=20170819-14:58:14.912|11=WARMUP1347249325|17=90WARMUP13472493251002172|37=9991002172|39=0|150=0|38=2|44=1.1|54=1|55=X|15=GBP|22=5|48=VODl.CHI|6=0|14=0|151=2|10=253|
10:58:14.914 [Warn]  WARMM_CLIENTSIM Slow consumer delayed write : 11 micros , numWrites=1
10:58:14.914 [info]   OUT [WARMM_CLIENTSIM]:  8=FIX.4.4|9=193|35=D|49=W_TCLT1|56=W_SMTC1|34=2227|43=N|52=20170819-14:58:14.914|11=WARMUP1347249326|59=0|22=5|48=VODl.CHI|38=2|44=1.1|15=GBP|40=2|54=1|55=X|21=1|60=20170819-14:58:14.914|526=WARMUP13472493260|10=018|
10:58:14.914 [info]    IN [WARMM_OM2CLT]: 8=FIX.4.4|9=193|35=D|49=W_TCLT1|56=W_SMTC1|34=2227|43=N|52=20170819-14:58:14.914|11=WARMUP1347249326|59=0|22=5|48=VODl.CHI|38=2|44=1.1|15=GBP|40=2|54=1|55=X|21=1|60=20170819-14:58:14.914|526=WARMUP13472493260|10=018|
10:58:14.914 [Warn]  WARMM_OM_2_SRV Slow consumer delayed write : 6 micros , numWrites=1
10:58:14.914 [info]   OUT [WARMM_OM_2_SRV]:  8=FIX.4.4|9=198|35=D|49=W_SMTE1|56=W_TEXE1|34=2174|43=N|52=20170819-14:58:14.914|11=WARMUP1347249326|59=0|22=5|48=VODl.CHI|38=2|44=1.1|15=GBP|40=2|54=1|55=X|21=1|60=20170819-14:58:14.914|526=WARMUP1347249326|528=P|10=022|
10:58:14.914 [info]    IN [WARMM_EXSIM]: 8=FIX.4.4|9=198|35=D|49=W_SMTE1|56=W_TEXE1|34=2174|43=N|52=20170819-14:58:14.914|11=WARMUP1347249326|59=0|22=5|48=VODl.CHI|38=2|44=1.1|15=GBP|40=2|54=1|55=X|21=1|60=20170819-14:58:14.914|526=WARMUP1347249326|528=P|10=022|
10:58:14.914 [info]   OUT [WARMM_EXSIM]:  8=FIX.4.4|9=200|35=8|49=W_TEXE1|56=W_SMTE1|34=2174|43=N|52=20170819-14:58:14.914|11=WARMUP1347249326|17=90WARMUP13472493261002173|37=9991002173|39=0|150=0|38=2|44=1.1|54=1|55=X|15=GBP|22=5|48=VODl.CHI|6=0|14=0|151=2|10=006|
10:58:14.914 [info]    IN [WARMM_OM_2_SRV]: 8=FIX.4.4|9=200|35=8|49=W_TEXE1|56=W_SMTE1|34=2174|43=N|52=20170819-14:58:14.914|11=WARMUP1347249326|17=90WARMUP13472493261002173|37=9991002173|39=0|150=0|38=2|44=1.1|54=1|55=X|15=GBP|22=5|48=VODl.CHI|6=0|14=0|151=2|10=006|
10:58:14.914 [Warn]  WARMM_OM2CLT Slow consumer delayed write : 5 micros , numWrites=1
10:58:14.914 [info]   OUT [WARMM_OM2CLT]:  8=FIX.4.4|9=200|35=8|49=W_SMTC1|56=W_TCLT1|34=2227|43=N|52=20170819-14:58:14.914|11=WARMUP1347249326|17=90WARMUP13472493261002173|37=9991002173|39=0|150=0|38=2|44=1.1|54=1|55=X|15=GBP|22=5|48=VODl.CHI|6=0|14=0|151=2|10=004|     [22,51,14]
10:58:14.914 [info]    IN [WARMM_CLIENTSIM]: 8=FIX.4.4|9=200|35=8|49=W_SMTC1|56=W_TCLT1|34=2227|43=N|52=20170819-14:58:14.914|11=WARMUP1347249326|17=90WARMUP13472493261002173|37=9991002173|39=0|150=0|38=2|44=1.1|54=1|55=X|15=GBP|22=5|48=VODl.CHI|6=0|14=0|151=2|10=004|
10:58:14.915 [Warn]  WARMM_CLIENTSIM Slow consumer delayed write : 5 micros , numWrites=1
10:58:14.915 [info]   OUT [WARMM_CLIENTSIM]:  8=FIX.4.4|9=193|35=D|49=W_TCLT1|56=W_SMTC1|34=2228|43=N|52=20170819-14:58:14.915|11=WARMUP1347249327|59=0|22=5|48=VODl.CHI|38=2|44=1.1|15=GBP|40=2|54=1|55=X|21=1|60=20170819-14:58:14.915|526=WARMUP13472493270|10=023|
10:58:14.915 [info]    IN [WARMM_OM2CLT]: 8=FIX.4.4|9=193|35=D|49=W_TCLT1|56=W_SMTC1|34=2228|43=N|52=20170819-14:58:14.915|11=WARMUP1347249327|59=0|22=5|48=VODl.CHI|38=2|44=1.1|15=GBP|40=2|54=1|55=X|21=1|60=20170819-14:58:14.915|526=WARMUP13472493270|10=023|
10:58:14.915 [Warn]  WARMM_OM_2_SRV Slow consumer delayed write : 6 micros , numWrites=1
10:58:14.915 [info]   OUT [WARMM_OM_2_SRV]:  8=FIX.4.4|9=198|35=D|49=W_SMTE1|56=W_TEXE1|34=2175|43=N|52=20170819-14:58:14.915|11=WARMUP1347249327|59=0|22=5|48=VODl.CHI|38=2|44=1.1|15=GBP|40=2|54=1|55=X|21=1|60=20170819-14:58:14.915|526=WARMUP1347249327|528=P|10=027|
10:58:14.915 [info]    IN [WARMM_EXSIM]: 8=FIX.4.4|9=198|35=D|49=W_SMTE1|56=W_TEXE1|34=2175|43=N|52=20170819-14:58:14.915|11=WARMUP1347249327|59=0|22=5|48=VODl.CHI|38=2|44=1.1|15=GBP|40=2|54=1|55=X|21=1|60=20170819-14:58:14.915|526=WARMUP1347249327|528=P|10=027|
10:58:14.915 [info]   OUT [WARMM_EXSIM]:  8=FIX.4.4|9=200|35=8|49=W_TEXE1|56=W_SMTE1|34=2175|43=N|52=20170819-14:58:14.915|11=WARMUP1347249327|17=90WARMUP13472493271002174|37=9991002174|39=0|150=0|38=2|44=1.1|54=1|55=X|15=GBP|22=5|48=VODl.CHI|6=0|14=0|151=2|10=012|
10:58:14.915 [info]    IN [WARMM_OM_2_SRV]: 8=FIX.4.4|9=200|35=8|49=W_TEXE1|56=W_SMTE1|34=2175|43=N|52=20170819-14:58:14.915|11=WARMUP1347249327|17=90WARMUP13472493271002174|37=9991002174|39=0|150=0|38=2|44=1.1|54=1|55=X|15=GBP|22=5|48=VODl.CHI|6=0|14=0|151=2|10=012|
10:58:14.915 [Warn]  WARMM_OM2CLT Slow consumer delayed write : 7 micros , numWrites=1
10:58:14.915 [info]   OUT [WARMM_OM2CLT]:  8=FIX.4.4|9=200|35=8|49=W_SMTC1|56=W_TCLT1|34=2228|43=N|52=20170819-14:58:14.915|11=WARMUP1347249327|17=90WARMUP13472493271002174|37=9991002174|39=0|150=0|38=2|44=1.1|54=1|55=X|15=GBP|22=5|48=VODl.CHI|6=0|14=0|151=2|10=010|     [29,51,14]
10:58:14.915 [info]    IN [WARMM_CLIENTSIM]: 8=FIX.4.4|9=200|35=8|49=W_SMTC1|56=W_TCLT1|34=2228|43=N|52=20170819-14:58:14.915|11=WARMUP1347249327|17=90WARMUP13472493271002174|37=9991002174|39=0|150=0|38=2|44=1.1|54=1|55=X|15=GBP|22=5|48=VODl.CHI|6=0|14=0|151=2|10=010|
10:58:14.916 [Warn]  WARMM_CLIENTSIM Slow consumer delayed write : 5 micros , numWrites=1
10:58:14.916 [info]   OUT [WARMM_CLIENTSIM]:  8=FIX.4.4|9=193|35=D|49=W_TCLT1|56=W_SMTC1|34=2229|43=N|52=20170819-14:58:14.916|11=WARMUP1347249328|59=0|22=5|48=VODl.CHI|38=2|44=1.1|15=GBP|40=2|54=1|55=X|21=1|60=20170819-14:58:14.916|526=WARMUP13472493280|10=028|
10:58:14.916 [info]    IN [WARMM_OM2CLT]: 8=FIX.4.4|9=193|35=D|49=W_TCLT1|56=W_SMTC1|34=2229|43=N|52=20170819-14:58:14.916|11=WARMUP1347249328|59=0|22=5|48=VODl.CHI|38=2|44=1.1|15=GBP|40=2|54=1|55=X|21=1|60=20170819-14:58:14.916|526=WARMUP13472493280|10=028|
10:58:14.916 [Warn]  WARMM_OM_2_SRV Slow consumer delayed write : 9 micros , numWrites=1
10:58:14.916 [info]   OUT [WARMM_OM_2_SRV]:  8=FIX.4.4|9=198|35=D|49=W_SMTE1|56=W_TEXE1|34=2176|43=N|52=20170819-14:58:14.916|11=WARMUP1347249328|59=0|22=5|48=VODl.CHI|38=2|44=1.1|15=GBP|40=2|54=1|55=X|21=1|60=20170819-14:58:14.916|526=WARMUP1347249328|528=P|10=032|
10:58:14.916 [info]    IN [WARMM_EXSIM]: 8=FIX.4.4|9=198|35=D|49=W_SMTE1|56=W_TEXE1|34=2176|43=N|52=20170819-14:58:14.916|11=WARMUP1347249328|59=0|22=5|48=VODl.CHI|38=2|44=1.1|15=GBP|40=2|54=1|55=X|21=1|60=20170819-14:58:14.916|526=WARMUP1347249328|528=P|10=032|
10:58:14.916 [info]   OUT [WARMM_EXSIM]:  8=FIX.4.4|9=200|35=8|49=W_TEXE1|56=W_SMTE1|34=2176|43=N|52=20170819-14:58:14.916|11=WARMUP1347249328|17=90WARMUP13472493281002175|37=9991002175|39=0|150=0|38=2|44=1.1|54=1|55=X|15=GBP|22=5|48=VODl.CHI|6=0|14=0|151=2|10=018|
10:58:14.916 [info]    IN [WARMM_OM_2_SRV]: 8=FIX.4.4|9=200|35=8|49=W_TEXE1|56=W_SMTE1|34=2176|43=N|52=20170819-14:58:14.916|11=WARMUP1347249328|17=90WARMUP13472493281002175|37=9991002175|39=0|150=0|38=2|44=1.1|54=1|55=X|15=GBP|22=5|48=VODl.CHI|6=0|14=0|151=2|10=018|
10:58:14.916 [Warn]  WARMM_OM2CLT Slow consumer delayed write : 5 micros , numWrites=1
10:58:14.916 [info]   OUT [WARMM_OM2CLT]:  8=FIX.4.4|9=200|35=8|49=W_SMTC1|56=W_TCLT1|34=2229|43=N|52=20170819-14:58:14.916|11=WARMUP1347249328|17=90WARMUP13472493281002175|37=9991002175|39=0|150=0|38=2|44=1.1|54=1|55=X|15=GBP|22=5|48=VODl.CHI|6=0|14=0|151=2|10=016|     [28,51,22]
10:58:14.916 [info]    IN [WARMM_CLIENTSIM]: 8=FIX.4.4|9=200|35=8|49=W_SMTC1|56=W_TCLT1|34=2229|43=N|52=20170819-14:58:14.916|11=WARMUP1347249328|17=90WARMUP13472493281002175|37=9991002175|39=0|150=0|38=2|44=1.1|54=1|55=X|15=GBP|22=5|48=VODl.CHI|6=0|14=0|151=2|10=016|
10:58:14.918 [Warn]  WARMM_CLIENTSIM Slow consumer delayed write : 31 micros , numWrites=1
10:58:14.918 [info]   OUT [WARMM_CLIENTSIM]:  8=FIX.4.4|9=193|35=D|49=W_TCLT1|56=W_SMTC1|34=2230|43=N|52=20170819-14:58:14.918|11=WARMUP1347249329|59=0|22=5|48=VODl.CHI|38=2|44=1.1|15=GBP|40=2|54=1|55=X|21=1|60=20170819-14:58:14.918|526=WARMUP13472493290|10=026|
10:58:14.918 [info]    IN [WARMM_OM2CLT]: 8=FIX.4.4|9=193|35=D|49=W_TCLT1|56=W_SMTC1|34=2230|43=N|52=20170819-14:58:14.918|11=WARMUP1347249329|59=0|22=5|48=VODl.CHI|38=2|44=1.1|15=GBP|40=2|54=1|55=X|21=1|60=20170819-14:58:14.918|526=WARMUP13472493290|10=026|
10:58:14.918 [Warn]  WARMM_OM_2_SRV Slow consumer delayed write : 14 micros , numWrites=1
10:58:14.918 [info]   OUT [WARMM_OM_2_SRV]:  8=FIX.4.4|9=198|35=D|49=W_SMTE1|56=W_TEXE1|34=2177|43=N|52=20170819-14:58:14.918|11=WARMUP1347249329|59=0|22=5|48=VODl.CHI|38=2|44=1.1|15=GBP|40=2|54=1|55=X|21=1|60=20170819-14:58:14.918|526=WARMUP1347249329|528=P|10=039|
10:58:14.918 [info]    IN [WARMM_EXSIM]: 8=FIX.4.4|9=198|35=D|49=W_SMTE1|56=W_TEXE1|34=2177|43=N|52=20170819-14:58:14.918|11=WARMUP1347249329|59=0|22=5|48=VODl.CHI|38=2|44=1.1|15=GBP|40=2|54=1|55=X|21=1|60=20170819-14:58:14.918|526=WARMUP1347249329|528=P|10=039|
10:58:14.918 [info]   OUT [WARMM_EXSIM]:  8=FIX.4.4|9=200|35=8|49=W_TEXE1|56=W_SMTE1|34=2177|43=N|52=20170819-14:58:14.918|11=WARMUP1347249329|17=90WARMUP13472493291002176|37=9991002176|39=0|150=0|38=2|44=1.1|54=1|55=X|15=GBP|22=5|48=VODl.CHI|6=0|14=0|151=2|10=025|
10:58:14.918 [info]    IN [WARMM_OM_2_SRV]: 8=FIX.4.4|9=200|35=8|49=W_TEXE1|56=W_SMTE1|34=2177|43=N|52=20170819-14:58:14.918|11=WARMUP1347249329|17=90WARMUP13472493291002176|37=9991002176|39=0|150=0|38=2|44=1.1|54=1|55=X|15=GBP|22=5|48=VODl.CHI|6=0|14=0|151=2|10=025|
10:58:14.918 [Warn]  WARMM_OM2CLT Slow consumer delayed write : 10 micros , numWrites=1
10:58:14.918 [info]   OUT [WARMM_OM2CLT]:  8=FIX.4.4|9=200|35=8|49=W_SMTC1|56=W_TCLT1|34=2230|43=N|52=20170819-14:58:14.918|11=WARMUP1347249329|17=90WARMUP13472493291002176|37=9991002176|39=0|150=0|38=2|44=1.1|54=1|55=X|15=GBP|22=5|48=VODl.CHI|6=0|14=0|151=2|10=014|     [47,101,35]
10:58:14.918 [info]    IN [WARMM_CLIENTSIM]: 8=FIX.4.4|9=200|35=8|49=W_SMTC1|56=W_TCLT1|34=2230|43=N|52=20170819-14:58:14.918|11=WARMUP1347249329|17=90WARMUP13472493291002176|37=9991002176|39=0|150=0|38=2|44=1.1|54=1|55=X|15=GBP|22=5|48=VODl.CHI|6=0|14=0|151=2|10=014|
10:58:14.919 [Warn]  WARMM_CLIENTSIM Slow consumer delayed write : 30 micros , numWrites=1
10:58:14.919 [info]   OUT [WARMM_CLIENTSIM]:  8=FIX.4.4|9=193|35=D|49=W_TCLT1|56=W_SMTC1|34=2231|43=N|52=20170819-14:58:14.919|11=WARMUP1347249330|59=0|22=5|48=VODl.CHI|38=2|44=1.1|15=GBP|40=2|54=1|55=X|21=1|60=20170819-14:58:14.919|526=WARMUP13472493300|10=013|
10:58:14.919 [info]    IN [WARMM_OM2CLT]: 8=FIX.4.4|9=193|35=D|49=W_TCLT1|56=W_SMTC1|34=2231|43=N|52=20170819-14:58:14.919|11=WARMUP1347249330|59=0|22=5|48=VODl.CHI|38=2|44=1.1|15=GBP|40=2|54=1|55=X|21=1|60=20170819-14:58:14.919|526=WARMUP13472493300|10=013|
10:58:14.919 [Warn]  WARMM_OM_2_SRV Slow consumer delayed write : 16 micros , numWrites=1
10:58:14.919 [info]   OUT [WARMM_OM_2_SRV]:  8=FIX.4.4|9=198|35=D|49=W_SMTE1|56=W_TEXE1|34=2178|43=N|52=20170819-14:58:14.919|11=WARMUP1347249330|59=0|22=5|48=VODl.CHI|38=2|44=1.1|15=GBP|40=2|54=1|55=X|21=1|60=20170819-14:58:14.919|526=WARMUP1347249330|528=P|10=026|
10:58:14.919 [info]    IN [WARMM_EXSIM]: 8=FIX.4.4|9=198|35=D|49=W_SMTE1|56=W_TEXE1|34=2178|43=N|52=20170819-14:58:14.919|11=WARMUP1347249330|59=0|22=5|48=VODl.CHI|38=2|44=1.1|15=GBP|40=2|54=1|55=X|21=1|60=20170819-14:58:14.919|526=WARMUP1347249330|528=P|10=026|
10:58:14.919 [info]   OUT [WARMM_EXSIM]:  8=FIX.4.4|9=200|35=8|49=W_TEXE1|56=W_SMTE1|34=2178|43=N|52=20170819-14:58:14.919|11=WARMUP1347249330|17=90WARMUP13472493301002177|37=9991002177|39=0|150=0|38=2|44=1.1|54=1|55=X|15=GBP|22=5|48=VODl.CHI|6=0|14=0|151=2|10=013|
10:58:14.919 [info]    IN [WARMM_OM_2_SRV]: 8=FIX.4.4|9=200|35=8|49=W_TEXE1|56=W_SMTE1|34=2178|43=N|52=20170819-14:58:14.919|11=WARMUP1347249330|17=90WARMUP13472493301002177|37=9991002177|39=0|150=0|38=2|44=1.1|54=1|55=X|15=GBP|22=5|48=VODl.CHI|6=0|14=0|151=2|10=013|
10:58:14.920 [Warn]  WARMM_OM2CLT Slow consumer delayed write : 13 micros , numWrites=1
10:58:14.920 [info]   OUT [WARMM_OM2CLT]:  8=FIX.4.4|9=200|35=8|49=W_SMTC1|56=W_TCLT1|34=2231|43=N|52=20170819-14:58:14.920|11=WARMUP1347249330|17=90WARMUP13472493301002177|37=9991002177|39=0|150=0|38=2|44=1.1|54=1|55=X|15=GBP|22=5|48=VODl.CHI|6=0|14=0|151=2|10=250|     [74,119,122]
10:58:14.920 [info]    IN [WARMM_CLIENTSIM]: 8=FIX.4.4|9=200|35=8|49=W_SMTC1|56=W_TCLT1|34=2231|43=N|52=20170819-14:58:14.920|11=WARMUP1347249330|17=90WARMUP13472493301002177|37=9991002177|39=0|150=0|38=2|44=1.1|54=1|55=X|15=GBP|22=5|48=VODl.CHI|6=0|14=0|151=2|10=250|
10:58:14.920 [Warn]  WARMM_CLIENTSIM Slow consumer delayed write : 40 micros , numWrites=1
10:58:14.920 [info]   OUT [WARMM_CLIENTSIM]:  8=FIX.4.4|9=193|35=D|49=W_TCLT1|56=W_SMTC1|34=2232|43=N|52=20170819-14:58:14.920|11=WARMUP1347249331|59=0|22=5|48=VODl.CHI|38=2|44=1.1|15=GBP|40=2|54=1|55=X|21=1|60=20170819-14:58:14.920|526=WARMUP13472493310|10=000|
10:58:14.920 [info]    IN [WARMM_OM2CLT]: 8=FIX.4.4|9=193|35=D|49=W_TCLT1|56=W_SMTC1|34=2232|43=N|52=20170819-14:58:14.920|11=WARMUP1347249331|59=0|22=5|48=VODl.CHI|38=2|44=1.1|15=GBP|40=2|54=1|55=X|21=1|60=20170819-14:58:14.920|526=WARMUP13472493310|10=000|
10:58:14.920 [Warn]  MemMapPageMgr PRELOADED getPage delay us=6 page=121 name=WARMM_OM_2_SRV_EXC1_OUT
10:58:14.921 [Warn]  WARMM_OM_2_SRV Slow consumer delayed write : 16 micros , numWrites=1
10:58:14.921 [info]   OUT [WARMM_OM_2_SRV]:  8=FIX.4.4|9=198|35=D|49=W_SMTE1|56=W_TEXE1|34=2179|43=N|52=20170819-14:58:14.920|11=WARMUP1347249331|59=0|22=5|48=VODl.CHI|38=2|44=1.1|15=GBP|40=2|54=1|55=X|21=1|60=20170819-14:58:14.920|526=WARMUP1347249331|528=P|10=013|
10:58:14.921 [info]    IN [WARMM_EXSIM]: 8=FIX.4.4|9=198|35=D|49=W_SMTE1|56=W_TEXE1|34=2179|43=N|52=20170819-14:58:14.920|11=WARMUP1347249331|59=0|22=5|48=VODl.CHI|38=2|44=1.1|15=GBP|40=2|54=1|55=X|21=1|60=20170819-14:58:14.920|526=WARMUP1347249331|528=P|10=013|
10:58:14.921 [Warn]  MemMapPageMgr PRELOADED getPage delay us=8 page=121 name=WARMM_EXSIM_EXSIM_IN
10:58:14.921 [info]   OUT [WARMM_EXSIM]:  8=FIX.4.4|9=200|35=8|49=W_TEXE1|56=W_SMTE1|34=2179|43=N|52=20170819-14:58:14.921|11=WARMUP1347249331|17=90WARMUP13472493311002178|37=9991002178|39=0|150=0|38=2|44=1.1|54=1|55=X|15=GBP|22=5|48=VODl.CHI|6=0|14=0|151=2|10=011|
10:58:14.921 [info]    IN [WARMM_OM_2_SRV]: 8=FIX.4.4|9=200|35=8|49=W_TEXE1|56=W_SMTE1|34=2179|43=N|52=20170819-14:58:14.921|11=WARMUP1347249331|17=90WARMUP13472493311002178|37=9991002178|39=0|150=0|38=2|44=1.1|54=1|55=X|15=GBP|22=5|48=VODl.CHI|6=0|14=0|151=2|10=011|
10:58:14.921 [Warn]  WARMM_OM2CLT Slow consumer delayed write : 10 micros , numWrites=1
10:58:14.921 [info]   OUT [WARMM_OM2CLT]:  8=FIX.4.4|9=200|35=8|49=W_SMTC1|56=W_TCLT1|34=2232|43=N|52=20170819-14:58:14.921|11=WARMUP1347249331|17=90WARMUP13472493311002178|37=9991002178|39=0|150=0|38=2|44=1.1|54=1|55=X|15=GBP|22=5|48=VODl.CHI|6=0|14=0|151=2|10=000|     [92,162,76]
10:58:14.921 [info]    IN [WARMM_CLIENTSIM]: 8=FIX.4.4|9=200|35=8|49=W_SMTC1|56=W_TCLT1|34=2232|43=N|52=20170819-14:58:14.921|11=WARMUP1347249331|17=90WARMUP13472493311002178|37=9991002178|39=0|150=0|38=2|44=1.1|54=1|55=X|15=GBP|22=5|48=VODl.CHI|6=0|14=0|151=2|10=000|
10:58:14.922 [Warn]  WARMM_CLIENTSIM Slow consumer delayed write : 12 micros , numWrites=1
10:58:14.922 [info]   OUT [WARMM_CLIENTSIM]:  8=FIX.4.4|9=193|35=D|49=W_TCLT1|56=W_SMTC1|34=2233|43=N|52=20170819-14:58:14.922|11=WARMUP1347249332|59=0|22=5|48=VODl.CHI|38=2|44=1.1|15=GBP|40=2|54=1|55=X|21=1|60=20170819-14:58:14.922|526=WARMUP13472493320|10=007|
10:58:14.922 [info]    IN [WARMM_OM2CLT]: 8=FIX.4.4|9=193|35=D|49=W_TCLT1|56=W_SMTC1|34=2233|43=N|52=20170819-14:58:14.922|11=WARMUP1347249332|59=0|22=5|48=VODl.CHI|38=2|44=1.1|15=GBP|40=2|54=1|55=X|21=1|60=20170819-14:58:14.922|526=WARMUP13472493320|10=007|
10:58:14.922 [Warn]  WARMM_OM_2_SRV Slow consumer delayed write : 6 micros , numWrites=1
10:58:14.922 [info]   OUT [WARMM_OM_2_SRV]:  8=FIX.4.4|9=198|35=D|49=W_SMTE1|56=W_TEXE1|34=2180|43=N|52=20170819-14:58:14.922|11=WARMUP1347249332|59=0|22=5|48=VODl.CHI|38=2|44=1.1|15=GBP|40=2|54=1|55=X|21=1|60=20170819-14:58:14.922|526=WARMUP1347249332|528=P|10=011|
10:58:14.922 [info]    IN [WARMM_EXSIM]: 8=FIX.4.4|9=198|35=D|49=W_SMTE1|56=W_TEXE1|34=2180|43=N|52=20170819-14:58:14.922|11=WARMUP1347249332|59=0|22=5|48=VODl.CHI|38=2|44=1.1|15=GBP|40=2|54=1|55=X|21=1|60=20170819-14:58:14.922|526=WARMUP1347249332|528=P|10=011|
10:58:14.922 [info]   OUT [WARMM_EXSIM]:  8=FIX.4.4|9=200|35=8|49=W_TEXE1|56=W_SMTE1|34=2180|43=N|52=20170819-14:58:14.922|11=WARMUP1347249332|17=90WARMUP13472493321002179|37=9991002179|39=0|150=0|38=2|44=1.1|54=1|55=X|15=GBP|22=5|48=VODl.CHI|6=0|14=0|151=2|10=008|
10:58:14.922 [info]    IN [WARMM_OM_2_SRV]: 8=FIX.4.4|9=200|35=8|49=W_TEXE1|56=W_SMTE1|34=2180|43=N|52=20170819-14:58:14.922|11=WARMUP1347249332|17=90WARMUP13472493321002179|37=9991002179|39=0|150=0|38=2|44=1.1|54=1|55=X|15=GBP|22=5|48=VODl.CHI|6=0|14=0|151=2|10=008|
10:58:14.922 [Warn]  WARMM_OM2CLT Slow consumer delayed write : 5 micros , numWrites=1
10:58:14.922 [info]   OUT [WARMM_OM2CLT]:  8=FIX.4.4|9=200|35=8|49=W_SMTC1|56=W_TCLT1|34=2233|43=N|52=20170819-14:58:14.922|11=WARMUP1347249332|17=90WARMUP13472493321002179|37=9991002179|39=0|150=0|38=2|44=1.1|54=1|55=X|15=GBP|22=5|48=VODl.CHI|6=0|14=0|151=2|10=006|     [34,53,23]
10:58:14.922 [info]    IN [WARMM_CLIENTSIM]: 8=FIX.4.4|9=200|35=8|49=W_SMTC1|56=W_TCLT1|34=2233|43=N|52=20170819-14:58:14.922|11=WARMUP1347249332|17=90WARMUP13472493321002179|37=9991002179|39=0|150=0|38=2|44=1.1|54=1|55=X|15=GBP|22=5|48=VODl.CHI|6=0|14=0|151=2|10=006|
10:58:14.923 [info]  MemMapPageMgr PRELOADED getPage delay us=4 page=124 name=WARMM_CLIENTSIM_CLTSIM_OUT
10:58:14.923 [Warn]  WARMM_CLIENTSIM Slow consumer delayed write : 7 micros , numWrites=1
10:58:14.923 [info]   OUT [WARMM_CLIENTSIM]:  8=FIX.4.4|9=193|35=D|49=W_TCLT1|56=W_SMTC1|34=2234|43=N|52=20170819-14:58:14.923|11=WARMUP1347249333|59=0|22=5|48=VODl.CHI|38=2|44=1.1|15=GBP|40=2|54=1|55=X|21=1|60=20170819-14:58:14.923|526=WARMUP13472493330|10=012|
10:58:14.923 [info]    IN [WARMM_OM2CLT]: 8=FIX.4.4|9=193|35=D|49=W_TCLT1|56=W_SMTC1|34=2234|43=N|52=20170819-14:58:14.923|11=WARMUP1347249333|59=0|22=5|48=VODl.CHI|38=2|44=1.1|15=GBP|40=2|54=1|55=X|21=1|60=20170819-14:58:14.923|526=WARMUP13472493330|10=012|
10:58:14.923 [Warn]  MemMapPageMgr PRELOADED getPage delay us=5 page=124 name=WARMM_OM2CLT_CLT_IN
10:58:14.923 [Warn]  WARMM_OM_2_SRV Slow consumer delayed write : 15 micros , numWrites=1
10:58:14.923 [info]   OUT [WARMM_OM_2_SRV]:  8=FIX.4.4|9=198|35=D|49=W_SMTE1|56=W_TEXE1|34=2181|43=N|52=20170819-14:58:14.923|11=WARMUP1347249333|59=0|22=5|48=VODl.CHI|38=2|44=1.1|15=GBP|40=2|54=1|55=X|21=1|60=20170819-14:58:14.923|526=WARMUP1347249333|528=P|10=016|
10:58:14.923 [info]    IN [WARMM_EXSIM]: 8=FIX.4.4|9=198|35=D|49=W_SMTE1|56=W_TEXE1|34=2181|43=N|52=20170819-14:58:14.923|11=WARMUP1347249333|59=0|22=5|48=VODl.CHI|38=2|44=1.1|15=GBP|40=2|54=1|55=X|21=1|60=20170819-14:58:14.923|526=WARMUP1347249333|528=P|10=016|
10:58:14.923 [info]   OUT [WARMM_EXSIM]:  8=FIX.4.4|9=200|35=8|49=W_TEXE1|56=W_SMTE1|34=2181|43=N|52=20170819-14:58:14.923|11=WARMUP1347249333|17=90WARMUP13472493331002180|37=9991002180|39=0|150=0|38=2|44=1.1|54=1|55=X|15=GBP|22=5|48=VODl.CHI|6=0|14=0|151=2|10=252|
10:58:14.923 [info]    IN [WARMM_OM_2_SRV]: 8=FIX.4.4|9=200|35=8|49=W_TEXE1|56=W_SMTE1|34=2181|43=N|52=20170819-14:58:14.923|11=WARMUP1347249333|17=90WARMUP13472493331002180|37=9991002180|39=0|150=0|38=2|44=1.1|54=1|55=X|15=GBP|22=5|48=VODl.CHI|6=0|14=0|151=2|10=252|
10:58:14.923 [Warn]  WARMM_OM2CLT Slow consumer delayed write : 5 micros , numWrites=1
10:58:14.923 [info]   OUT [WARMM_OM2CLT]:  8=FIX.4.4|9=200|35=8|49=W_SMTC1|56=W_TCLT1|34=2234|43=N|52=20170819-14:58:14.923|11=WARMUP1347249333|17=90WARMUP13472493331002180|37=9991002180|39=0|150=0|38=2|44=1.1|54=1|55=X|15=GBP|22=5|48=VODl.CHI|6=0|14=0|151=2|10=250|     [45,107,25]
10:58:14.923 [info]    IN [WARMM_CLIENTSIM]: 8=FIX.4.4|9=200|35=8|49=W_SMTC1|56=W_TCLT1|34=2234|43=N|52=20170819-14:58:14.923|11=WARMUP1347249333|17=90WARMUP13472493331002180|37=9991002180|39=0|150=0|38=2|44=1.1|54=1|55=X|15=GBP|22=5|48=VODl.CHI|6=0|14=0|151=2|10=250|
10:58:14.924 [Warn]  WARMM_CLIENTSIM Slow consumer delayed write : 5 micros , numWrites=1
10:58:14.924 [info]   OUT [WARMM_CLIENTSIM]:  8=FIX.4.4|9=193|35=D|49=W_TCLT1|56=W_SMTC1|34=2235|43=N|52=20170819-14:58:14.924|11=WARMUP1347249334|59=0|22=5|48=VODl.CHI|38=2|44=1.1|15=GBP|40=2|54=1|55=X|21=1|60=20170819-14:58:14.924|526=WARMUP13472493340|10=017|
10:58:14.924 [info]    IN [WARMM_OM2CLT]: 8=FIX.4.4|9=193|35=D|49=W_TCLT1|56=W_SMTC1|34=2235|43=N|52=20170819-14:58:14.924|11=WARMUP1347249334|59=0|22=5|48=VODl.CHI|38=2|44=1.1|15=GBP|40=2|54=1|55=X|21=1|60=20170819-14:58:14.924|526=WARMUP13472493340|10=017|
10:58:14.924 [Warn]  WARMM_OM_2_SRV Slow consumer delayed write : 5 micros , numWrites=1
10:58:14.924 [info]   OUT [WARMM_OM_2_SRV]:  8=FIX.4.4|9=198|35=D|49=W_SMTE1|56=W_TEXE1|34=2182|43=N|52=20170819-14:58:14.924|11=WARMUP1347249334|59=0|22=5|48=VODl.CHI|38=2|44=1.1|15=GBP|40=2|54=1|55=X|21=1|60=20170819-14:58:14.924|526=WARMUP1347249334|528=P|10=021|
10:58:14.924 [info]    IN [WARMM_EXSIM]: 8=FIX.4.4|9=198|35=D|49=W_SMTE1|56=W_TEXE1|34=2182|43=N|52=20170819-14:58:14.924|11=WARMUP1347249334|59=0|22=5|48=VODl.CHI|38=2|44=1.1|15=GBP|40=2|54=1|55=X|21=1|60=20170819-14:58:14.924|526=WARMUP1347249334|528=P|10=021|
10:58:14.924 [info]  MemMapPageMgr PRELOADED getPage delay us=3 page=128 name=WARMM_EXSIM_EXSIM_OUT
10:58:14.924 [info]   OUT [WARMM_EXSIM]:  8=FIX.4.4|9=200|35=8|49=W_TEXE1|56=W_SMTE1|34=2182|43=N|52=20170819-14:58:14.924|11=WARMUP1347249334|17=90WARMUP13472493341002181|37=9991002181|39=0|150=0|38=2|44=1.1|54=1|55=X|15=GBP|22=5|48=VODl.CHI|6=0|14=0|151=2|10=002|
10:58:14.924 [info]    IN [WARMM_OM_2_SRV]: 8=FIX.4.4|9=200|35=8|49=W_TEXE1|56=W_SMTE1|34=2182|43=N|52=20170819-14:58:14.924|11=WARMUP1347249334|17=90WARMUP13472493341002181|37=9991002181|39=0|150=0|38=2|44=1.1|54=1|55=X|15=GBP|22=5|48=VODl.CHI|6=0|14=0|151=2|10=002|
10:58:14.924 [Warn]  MemMapPageMgr PRELOADED getPage delay us=6 page=128 name=WARMM_OM_2_SRV_EXC1_IN
10:58:14.924 [Warn]  WARMM_OM2CLT Slow consumer delayed write : 10 micros , numWrites=1
10:58:14.924 [info]   OUT [WARMM_OM2CLT]:  8=FIX.4.4|9=200|35=8|49=W_SMTC1|56=W_TCLT1|34=2235|43=N|52=20170819-14:58:14.924|11=WARMUP1347249334|17=90WARMUP13472493341002181|37=9991002181|39=0|150=0|38=2|44=1.1|54=1|55=X|15=GBP|22=5|48=VODl.CHI|6=0|14=0|151=2|10=000|     [19,93,54]
10:58:14.924 [info]    IN [WARMM_CLIENTSIM]: 8=FIX.4.4|9=200|35=8|49=W_SMTC1|56=W_TCLT1|34=2235|43=N|52=20170819-14:58:14.924|11=WARMUP1347249334|17=90WARMUP13472493341002181|37=9991002181|39=0|150=0|38=2|44=1.1|54=1|55=X|15=GBP|22=5|48=VODl.CHI|6=0|14=0|151=2|10=000|
10:58:14.925 [Warn]  WARMM_CLIENTSIM Slow consumer delayed write : 10 micros , numWrites=1
10:58:14.925 [info]   OUT [WARMM_CLIENTSIM]:  8=FIX.4.4|9=193|35=D|49=W_TCLT1|56=W_SMTC1|34=2236|43=N|52=20170819-14:58:14.925|11=WARMUP1347249335|59=0|22=5|48=VODl.CHI|38=2|44=1.1|15=GBP|40=2|54=1|55=X|21=1|60=20170819-14:58:14.925|526=WARMUP13472493350|10=022|
10:58:14.925 [info]    IN [WARMM_OM2CLT]: 8=FIX.4.4|9=193|35=D|49=W_TCLT1|56=W_SMTC1|34=2236|43=N|52=20170819-14:58:14.925|11=WARMUP1347249335|59=0|22=5|48=VODl.CHI|38=2|44=1.1|15=GBP|40=2|54=1|55=X|21=1|60=20170819-14:58:14.925|526=WARMUP13472493350|10=022|
10:58:14.926 [Warn]  WARMM_OM_2_SRV Slow consumer delayed write : 6 micros , numWrites=1
10:58:14.926 [info]   OUT [WARMM_OM_2_SRV]:  8=FIX.4.4|9=198|35=D|49=W_SMTE1|56=W_TEXE1|34=2183|43=N|52=20170819-14:58:14.925|11=WARMUP1347249335|59=0|22=5|48=VODl.CHI|38=2|44=1.1|15=GBP|40=2|54=1|55=X|21=1|60=20170819-14:58:14.925|526=WARMUP1347249335|528=P|10=026|
10:58:14.926 [info]    IN [WARMM_EXSIM]: 8=FIX.4.4|9=198|35=D|49=W_SMTE1|56=W_TEXE1|34=2183|43=N|52=20170819-14:58:14.925|11=WARMUP1347249335|59=0|22=5|48=VODl.CHI|38=2|44=1.1|15=GBP|40=2|54=1|55=X|21=1|60=20170819-14:58:14.925|526=WARMUP1347249335|528=P|10=026|
10:58:14.926 [info]   OUT [WARMM_EXSIM]:  8=FIX.4.4|9=200|35=8|49=W_TEXE1|56=W_SMTE1|34=2183|43=N|52=20170819-14:58:14.926|11=WARMUP1347249335|17=90WARMUP13472493351002182|37=9991002182|39=0|150=0|38=2|44=1.1|54=1|55=X|15=GBP|22=5|48=VODl.CHI|6=0|14=0|151=2|10=009|
10:58:14.926 [info]    IN [WARMM_OM_2_SRV]: 8=FIX.4.4|9=200|35=8|49=W_TEXE1|56=W_SMTE1|34=2183|43=N|52=20170819-14:58:14.926|11=WARMUP1347249335|17=90WARMUP13472493351002182|37=9991002182|39=0|150=0|38=2|44=1.1|54=1|55=X|15=GBP|22=5|48=VODl.CHI|6=0|14=0|151=2|10=009|
10:58:14.926 [Warn]  WARMM_OM2CLT Slow consumer delayed write : 21 micros , numWrites=1
10:58:14.926 [info]   OUT [WARMM_OM2CLT]:  8=FIX.4.4|9=200|35=8|49=W_SMTC1|56=W_TCLT1|34=2236|43=N|52=20170819-14:58:14.926|11=WARMUP1347249335|17=90WARMUP13472493351002182|37=9991002182|39=0|150=0|38=2|44=1.1|54=1|55=X|15=GBP|22=5|48=VODl.CHI|6=0|14=0|151=2|10=007|     [25,53,18]
10:58:14.926 [info]    IN [WARMM_CLIENTSIM]: 8=FIX.4.4|9=200|35=8|49=W_SMTC1|56=W_TCLT1|34=2236|43=N|52=20170819-14:58:14.926|11=WARMUP1347249335|17=90WARMUP13472493351002182|37=9991002182|39=0|150=0|38=2|44=1.1|54=1|55=X|15=GBP|22=5|48=VODl.CHI|6=0|14=0|151=2|10=007|
10:58:14.927 [Warn]  WARMM_CLIENTSIM Slow consumer delayed write : 13 micros , numWrites=1
10:58:14.927 [info]   OUT [WARMM_CLIENTSIM]:  8=FIX.4.4|9=193|35=D|49=W_TCLT1|56=W_SMTC1|34=2237|43=N|52=20170819-14:58:14.927|11=WARMUP1347249336|59=0|22=5|48=VODl.CHI|38=2|44=1.1|15=GBP|40=2|54=1|55=X|21=1|60=20170819-14:58:14.927|526=WARMUP13472493360|10=029|
10:58:14.927 [info]    IN [WARMM_OM2CLT]: 8=FIX.4.4|9=193|35=D|49=W_TCLT1|56=W_SMTC1|34=2237|43=N|52=20170819-14:58:14.927|11=WARMUP1347249336|59=0|22=5|48=VODl.CHI|38=2|44=1.1|15=GBP|40=2|54=1|55=X|21=1|60=20170819-14:58:14.927|526=WARMUP13472493360|10=029|
10:58:14.927 [Warn]  WARMM_OM_2_SRV Slow consumer delayed write : 6 micros , numWrites=1
10:58:14.927 [info]   OUT [WARMM_OM_2_SRV]:  8=FIX.4.4|9=198|35=D|49=W_SMTE1|56=W_TEXE1|34=2184|43=N|52=20170819-14:58:14.927|11=WARMUP1347249336|59=0|22=5|48=VODl.CHI|38=2|44=1.1|15=GBP|40=2|54=1|55=X|21=1|60=20170819-14:58:14.927|526=WARMUP1347249336|528=P|10=033|
10:58:14.927 [info]    IN [WARMM_EXSIM]: 8=FIX.4.4|9=198|35=D|49=W_SMTE1|56=W_TEXE1|34=2184|43=N|52=20170819-14:58:14.927|11=WARMUP1347249336|59=0|22=5|48=VODl.CHI|38=2|44=1.1|15=GBP|40=2|54=1|55=X|21=1|60=20170819-14:58:14.927|526=WARMUP1347249336|528=P|10=033|
10:58:14.927 [info]   OUT [WARMM_EXSIM]:  8=FIX.4.4|9=200|35=8|49=W_TEXE1|56=W_SMTE1|34=2184|43=N|52=20170819-14:58:14.927|11=WARMUP1347249336|17=90WARMUP13472493361002183|37=9991002183|39=0|150=0|38=2|44=1.1|54=1|55=X|15=GBP|22=5|48=VODl.CHI|6=0|14=0|151=2|10=015|
10:58:14.927 [info]    IN [WARMM_OM_2_SRV]: 8=FIX.4.4|9=200|35=8|49=W_TEXE1|56=W_SMTE1|34=2184|43=N|52=20170819-14:58:14.927|11=WARMUP1347249336|17=90WARMUP13472493361002183|37=9991002183|39=0|150=0|38=2|44=1.1|54=1|55=X|15=GBP|22=5|48=VODl.CHI|6=0|14=0|151=2|10=015|
10:58:14.927 [info]  MemMapPageMgr PRELOADED getPage delay us=3 page=132 name=WARMM_OM2CLT_CLT_OUT
10:58:14.927 [Warn]  WARMM_OM2CLT Slow consumer delayed write : 17 micros , numWrites=1
10:58:14.927 [info]   OUT [WARMM_OM2CLT]:  8=FIX.4.4|9=200|35=8|49=W_SMTC1|56=W_TCLT1|34=2237|43=N|52=20170819-14:58:14.927|11=WARMUP1347249336|17=90WARMUP13472493361002183|37=9991002183|39=0|150=0|38=2|44=1.1|54=1|55=X|15=GBP|22=5|48=VODl.CHI|6=0|14=0|151=2|10=013|     [33,58,43]
10:58:14.927 [info]    IN [WARMM_CLIENTSIM]: 8=FIX.4.4|9=200|35=8|49=W_SMTC1|56=W_TCLT1|34=2237|43=N|52=20170819-14:58:14.927|11=WARMUP1347249336|17=90WARMUP13472493361002183|37=9991002183|39=0|150=0|38=2|44=1.1|54=1|55=X|15=GBP|22=5|48=VODl.CHI|6=0|14=0|151=2|10=013|
10:58:14.927 [Warn]  MemMapPageMgr PRELOADED getPage delay us=5 page=132 name=WARMM_CLIENTSIM_CLTSIM_IN
10:58:14.928 [Warn]  WARMM_CLIENTSIM Slow consumer delayed write : 10 micros , numWrites=1
10:58:14.928 [info]   OUT [WARMM_CLIENTSIM]:  8=FIX.4.4|9=193|35=D|49=W_TCLT1|56=W_SMTC1|34=2238|43=N|52=20170819-14:58:14.928|11=WARMUP1347249337|59=0|22=5|48=VODl.CHI|38=2|44=1.1|15=GBP|40=2|54=1|55=X|21=1|60=20170819-14:58:14.928|526=WARMUP13472493370|10=034|
10:58:14.928 [info]    IN [WARMM_OM2CLT]: 8=FIX.4.4|9=193|35=D|49=W_TCLT1|56=W_SMTC1|34=2238|43=N|52=20170819-14:58:14.928|11=WARMUP1347249337|59=0|22=5|48=VODl.CHI|38=2|44=1.1|15=GBP|40=2|54=1|55=X|21=1|60=20170819-14:58:14.928|526=WARMUP13472493370|10=034|
10:58:14.928 [Warn]  WARMM_OM_2_SRV Slow consumer delayed write : 10 micros , numWrites=1
10:58:14.928 [info]   OUT [WARMM_OM_2_SRV]:  8=FIX.4.4|9=198|35=D|49=W_SMTE1|56=W_TEXE1|34=2185|43=N|52=20170819-14:58:14.928|11=WARMUP1347249337|59=0|22=5|48=VODl.CHI|38=2|44=1.1|15=GBP|40=2|54=1|55=X|21=1|60=20170819-14:58:14.928|526=WARMUP1347249337|528=P|10=038|
10:58:14.928 [info]    IN [WARMM_EXSIM]: 8=FIX.4.4|9=198|35=D|49=W_SMTE1|56=W_TEXE1|34=2185|43=N|52=20170819-14:58:14.928|11=WARMUP1347249337|59=0|22=5|48=VODl.CHI|38=2|44=1.1|15=GBP|40=2|54=1|55=X|21=1|60=20170819-14:58:14.928|526=WARMUP1347249337|528=P|10=038|
10:58:14.928 [info]   OUT [WARMM_EXSIM]:  8=FIX.4.4|9=200|35=8|49=W_TEXE1|56=W_SMTE1|34=2185|43=N|52=20170819-14:58:14.928|11=WARMUP1347249337|17=90WARMUP13472493371002184|37=9991002184|39=0|150=0|38=2|44=1.1|54=1|55=X|15=GBP|22=5|48=VODl.CHI|6=0|14=0|151=2|10=021|
10:58:14.928 [info]    IN [WARMM_OM_2_SRV]: 8=FIX.4.4|9=200|35=8|49=W_TEXE1|56=W_SMTE1|34=2185|43=N|52=20170819-14:58:14.928|11=WARMUP1347249337|17=90WARMUP13472493371002184|37=9991002184|39=0|150=0|38=2|44=1.1|54=1|55=X|15=GBP|22=5|48=VODl.CHI|6=0|14=0|151=2|10=021|
10:58:14.928 [Warn]  WARMM_OM2CLT Slow consumer delayed write : 7 micros , numWrites=1
10:58:14.928 [info]   OUT [WARMM_OM2CLT]:  8=FIX.4.4|9=200|35=8|49=W_SMTC1|56=W_TCLT1|34=2238|43=N|52=20170819-14:58:14.928|11=WARMUP1347249337|17=90WARMUP13472493371002184|37=9991002184|39=0|150=0|38=2|44=1.1|54=1|55=X|15=GBP|22=5|48=VODl.CHI|6=0|14=0|151=2|10=019|     [27,61,20]
10:58:14.928 [info]    IN [WARMM_CLIENTSIM]: 8=FIX.4.4|9=200|35=8|49=W_SMTC1|56=W_TCLT1|34=2238|43=N|52=20170819-14:58:14.928|11=WARMUP1347249337|17=90WARMUP13472493371002184|37=9991002184|39=0|150=0|38=2|44=1.1|54=1|55=X|15=GBP|22=5|48=VODl.CHI|6=0|14=0|151=2|10=019|
10:58:14.929 [Warn]  WARMM_CLIENTSIM Slow consumer delayed write : 20 micros , numWrites=1
10:58:14.929 [info]   OUT [WARMM_CLIENTSIM]:  8=FIX.4.4|9=193|35=D|49=W_TCLT1|56=W_SMTC1|34=2239|43=N|52=20170819-14:58:14.929|11=WARMUP1347249338|59=0|22=5|48=VODl.CHI|38=2|44=1.1|15=GBP|40=2|54=1|55=X|21=1|60=20170819-14:58:14.929|526=WARMUP13472493380|10=039|
10:58:14.929 [info]    IN [WARMM_OM2CLT]: 8=FIX.4.4|9=193|35=D|49=W_TCLT1|56=W_SMTC1|34=2239|43=N|52=20170819-14:58:14.929|11=WARMUP1347249338|59=0|22=5|48=VODl.CHI|38=2|44=1.1|15=GBP|40=2|54=1|55=X|21=1|60=20170819-14:58:14.929|526=WARMUP13472493380|10=039|
10:58:14.929 [Warn]  WARMM_OM_2_SRV Slow consumer delayed write : 11 micros , numWrites=1
10:58:14.929 [info]   OUT [WARMM_OM_2_SRV]:  8=FIX.4.4|9=198|35=D|49=W_SMTE1|56=W_TEXE1|34=2186|43=N|52=20170819-14:58:14.929|11=WARMUP1347249338|59=0|22=5|48=VODl.CHI|38=2|44=1.1|15=GBP|40=2|54=1|55=X|21=1|60=20170819-14:58:14.929|526=WARMUP1347249338|528=P|10=043|
10:58:14.929 [info]    IN [WARMM_EXSIM]: 8=FIX.4.4|9=198|35=D|49=W_SMTE1|56=W_TEXE1|34=2186|43=N|52=20170819-14:58:14.929|11=WARMUP1347249338|59=0|22=5|48=VODl.CHI|38=2|44=1.1|15=GBP|40=2|54=1|55=X|21=1|60=20170819-14:58:14.929|526=WARMUP1347249338|528=P|10=043|
10:58:14.929 [info]   OUT [WARMM_EXSIM]:  8=FIX.4.4|9=200|35=8|49=W_TEXE1|56=W_SMTE1|34=2186|43=N|52=20170819-14:58:14.929|11=WARMUP1347249338|17=90WARMUP13472493381002185|37=9991002185|39=0|150=0|38=2|44=1.1|54=1|55=X|15=GBP|22=5|48=VODl.CHI|6=0|14=0|151=2|10=027|
10:58:14.929 [info]    IN [WARMM_OM_2_SRV]: 8=FIX.4.4|9=200|35=8|49=W_TEXE1|56=W_SMTE1|34=2186|43=N|52=20170819-14:58:14.929|11=WARMUP1347249338|17=90WARMUP13472493381002185|37=9991002185|39=0|150=0|38=2|44=1.1|54=1|55=X|15=GBP|22=5|48=VODl.CHI|6=0|14=0|151=2|10=027|
10:58:14.930 [Warn]  WARMM_OM2CLT Slow consumer delayed write : 8 micros , numWrites=1
10:58:14.930 [info]   OUT [WARMM_OM2CLT]:  8=FIX.4.4|9=200|35=8|49=W_SMTC1|56=W_TCLT1|34=2239|43=N|52=20170819-14:58:14.929|11=WARMUP1347249338|17=90WARMUP13472493381002185|37=9991002185|39=0|150=0|38=2|44=1.1|54=1|55=X|15=GBP|22=5|48=VODl.CHI|6=0|14=0|151=2|10=025|     [32,85,22]
10:58:14.930 [info]    IN [WARMM_CLIENTSIM]: 8=FIX.4.4|9=200|35=8|49=W_SMTC1|56=W_TCLT1|34=2239|43=N|52=20170819-14:58:14.929|11=WARMUP1347249338|17=90WARMUP13472493381002185|37=9991002185|39=0|150=0|38=2|44=1.1|54=1|55=X|15=GBP|22=5|48=VODl.CHI|6=0|14=0|151=2|10=025|
10:58:14.930 [Warn]  WARMM_CLIENTSIM Slow consumer delayed write : 19 micros , numWrites=1
10:58:14.930 [info]   OUT [WARMM_CLIENTSIM]:  8=FIX.4.4|9=193|35=D|49=W_TCLT1|56=W_SMTC1|34=2240|43=N|52=20170819-14:58:14.930|11=WARMUP1347249339|59=0|22=5|48=VODl.CHI|38=2|44=1.1|15=GBP|40=2|54=1|55=X|21=1|60=20170819-14:58:14.930|526=WARMUP13472493390|10=017|
10:58:14.930 [info]    IN [WARMM_OM2CLT]: 8=FIX.4.4|9=193|35=D|49=W_TCLT1|56=W_SMTC1|34=2240|43=N|52=20170819-14:58:14.930|11=WARMUP1347249339|59=0|22=5|48=VODl.CHI|38=2|44=1.1|15=GBP|40=2|54=1|55=X|21=1|60=20170819-14:58:14.930|526=WARMUP13472493390|10=017|
10:58:14.930 [Warn]  WARMM_OM_2_SRV Slow consumer delayed write : 10 micros , numWrites=1
10:58:14.930 [info]   OUT [WARMM_OM_2_SRV]:  8=FIX.4.4|9=198|35=D|49=W_SMTE1|56=W_TEXE1|34=2187|43=N|52=20170819-14:58:14.930|11=WARMUP1347249339|59=0|22=5|48=VODl.CHI|38=2|44=1.1|15=GBP|40=2|54=1|55=X|21=1|60=20170819-14:58:14.930|526=WARMUP1347249339|528=P|10=030|
10:58:14.931 [info]    IN [WARMM_EXSIM]: 8=FIX.4.4|9=198|35=D|49=W_SMTE1|56=W_TEXE1|34=2187|43=N|52=20170819-14:58:14.930|11=WARMUP1347249339|59=0|22=5|48=VODl.CHI|38=2|44=1.1|15=GBP|40=2|54=1|55=X|21=1|60=20170819-14:58:14.930|526=WARMUP1347249339|528=P|10=030|
10:58:14.931 [info]   OUT [WARMM_EXSIM]:  8=FIX.4.4|9=200|35=8|49=W_TEXE1|56=W_SMTE1|34=2187|43=N|52=20170819-14:58:14.931|11=WARMUP1347249339|17=90WARMUP13472493391002186|37=9991002186|39=0|150=0|38=2|44=1.1|54=1|55=X|15=GBP|22=5|48=VODl.CHI|6=0|14=0|151=2|10=025|
10:58:14.931 [info]    IN [WARMM_OM_2_SRV]: 8=FIX.4.4|9=200|35=8|49=W_TEXE1|56=W_SMTE1|34=2187|43=N|52=20170819-14:58:14.931|11=WARMUP1347249339|17=90WARMUP13472493391002186|37=9991002186|39=0|150=0|38=2|44=1.1|54=1|55=X|15=GBP|22=5|48=VODl.CHI|6=0|14=0|151=2|10=025|
10:58:14.931 [Warn]  WARMM_OM2CLT Slow consumer delayed write : 9 micros , numWrites=1
10:58:14.931 [info]   OUT [WARMM_OM2CLT]:  8=FIX.4.4|9=200|35=8|49=W_SMTC1|56=W_TCLT1|34=2240|43=N|52=20170819-14:58:14.931|11=WARMUP1347249339|17=90WARMUP13472493391002186|37=9991002186|39=0|150=0|38=2|44=1.1|54=1|55=X|15=GBP|22=5|48=VODl.CHI|6=0|14=0|151=2|10=014|     [37,97,51]
10:58:14.931 [info]    IN [WARMM_CLIENTSIM]: 8=FIX.4.4|9=200|35=8|49=W_SMTC1|56=W_TCLT1|34=2240|43=N|52=20170819-14:58:14.931|11=WARMUP1347249339|17=90WARMUP13472493391002186|37=9991002186|39=0|150=0|38=2|44=1.1|54=1|55=X|15=GBP|22=5|48=VODl.CHI|6=0|14=0|151=2|10=014|
10:58:14.932 [Warn]  WARMM_CLIENTSIM Slow consumer delayed write : 33 micros , numWrites=1
10:58:14.932 [info]   OUT [WARMM_CLIENTSIM]:  8=FIX.4.4|9=193|35=D|49=W_TCLT1|56=W_SMTC1|34=2241|43=N|52=20170819-14:58:14.932|11=WARMUP1347249340|59=0|22=5|48=VODl.CHI|38=2|44=1.1|15=GBP|40=2|54=1|55=X|21=1|60=20170819-14:58:14.932|526=WARMUP13472493400|10=006|
10:58:14.932 [info]    IN [WARMM_OM2CLT]: 8=FIX.4.4|9=193|35=D|49=W_TCLT1|56=W_SMTC1|34=2241|43=N|52=20170819-14:58:14.932|11=WARMUP1347249340|59=0|22=5|48=VODl.CHI|38=2|44=1.1|15=GBP|40=2|54=1|55=X|21=1|60=20170819-14:58:14.932|526=WARMUP13472493400|10=006|
10:58:14.932 [Warn]  WARMM_OM_2_SRV Slow consumer delayed write : 14 micros , numWrites=1
10:58:14.932 [info]   OUT [WARMM_OM_2_SRV]:  8=FIX.4.4|9=198|35=D|49=W_SMTE1|56=W_TEXE1|34=2188|43=N|52=20170819-14:58:14.932|11=WARMUP1347249340|59=0|22=5|48=VODl.CHI|38=2|44=1.1|15=GBP|40=2|54=1|55=X|21=1|60=20170819-14:58:14.932|526=WARMUP1347249340|528=P|10=019|
10:58:14.932 [info]    IN [WARMM_EXSIM]: 8=FIX.4.4|9=198|35=D|49=W_SMTE1|56=W_TEXE1|34=2188|43=N|52=20170819-14:58:14.932|11=WARMUP1347249340|59=0|22=5|48=VODl.CHI|38=2|44=1.1|15=GBP|40=2|54=1|55=X|21=1|60=20170819-14:58:14.932|526=WARMUP1347249340|528=P|10=019|
10:58:14.932 [info]   OUT [WARMM_EXSIM]:  8=FIX.4.4|9=200|35=8|49=W_TEXE1|56=W_SMTE1|34=2188|43=N|52=20170819-14:58:14.932|11=WARMUP1347249340|17=90WARMUP13472493401002187|37=9991002187|39=0|150=0|38=2|44=1.1|54=1|55=X|15=GBP|22=5|48=VODl.CHI|6=0|14=0|151=2|10=013|
10:58:14.932 [info]    IN [WARMM_OM_2_SRV]: 8=FIX.4.4|9=200|35=8|49=W_TEXE1|56=W_SMTE1|34=2188|43=N|52=20170819-14:58:14.932|11=WARMUP1347249340|17=90WARMUP13472493401002187|37=9991002187|39=0|150=0|38=2|44=1.1|54=1|55=X|15=GBP|22=5|48=VODl.CHI|6=0|14=0|151=2|10=013|
10:58:14.932 [Warn]  WARMM_OM2CLT Slow consumer delayed write : 11 micros , numWrites=1
10:58:14.932 [info]   OUT [WARMM_OM2CLT]:  8=FIX.4.4|9=200|35=8|49=W_SMTC1|56=W_TCLT1|34=2241|43=N|52=20170819-14:58:14.932|11=WARMUP1347249340|17=90WARMUP13472493401002187|37=9991002187|39=0|150=0|38=2|44=1.1|54=1|55=X|15=GBP|22=5|48=VODl.CHI|6=0|14=0|151=2|10=002|     [37,130,108]
10:58:14.932 [info]    IN [WARMM_CLIENTSIM]: 8=FIX.4.4|9=200|35=8|49=W_SMTC1|56=W_TCLT1|34=2241|43=N|52=20170819-14:58:14.932|11=WARMUP1347249340|17=90WARMUP13472493401002187|37=9991002187|39=0|150=0|38=2|44=1.1|54=1|55=X|15=GBP|22=5|48=VODl.CHI|6=0|14=0|151=2|10=002|
10:58:14.933 [Warn]  WARMM_CLIENTSIM Slow consumer delayed write : 11 micros , numWrites=1
10:58:14.933 [info]   OUT [WARMM_CLIENTSIM]:  8=FIX.4.4|9=193|35=D|49=W_TCLT1|56=W_SMTC1|34=2242|43=N|52=20170819-14:58:14.933|11=WARMUP1347249341|59=0|22=5|48=VODl.CHI|38=2|44=1.1|15=GBP|40=2|54=1|55=X|21=1|60=20170819-14:58:14.933|526=WARMUP13472493410|10=011|
10:58:14.933 [info]    IN [WARMM_OM2CLT]: 8=FIX.4.4|9=193|35=D|49=W_TCLT1|56=W_SMTC1|34=2242|43=N|52=20170819-14:58:14.933|11=WARMUP1347249341|59=0|22=5|48=VODl.CHI|38=2|44=1.1|15=GBP|40=2|54=1|55=X|21=1|60=20170819-14:58:14.933|526=WARMUP13472493410|10=011|
10:58:14.933 [Warn]  WARMM_OM_2_SRV Slow consumer delayed write : 6 micros , numWrites=1
10:58:14.933 [info]   OUT [WARMM_OM_2_SRV]:  8=FIX.4.4|9=198|35=D|49=W_SMTE1|56=W_TEXE1|34=2189|43=N|52=20170819-14:58:14.933|11=WARMUP1347249341|59=0|22=5|48=VODl.CHI|38=2|44=1.1|15=GBP|40=2|54=1|55=X|21=1|60=20170819-14:58:14.933|526=WARMUP1347249341|528=P|10=024|
10:58:14.933 [info]    IN [WARMM_EXSIM]: 8=FIX.4.4|9=198|35=D|49=W_SMTE1|56=W_TEXE1|34=2189|43=N|52=20170819-14:58:14.933|11=WARMUP1347249341|59=0|22=5|48=VODl.CHI|38=2|44=1.1|15=GBP|40=2|54=1|55=X|21=1|60=20170819-14:58:14.933|526=WARMUP1347249341|528=P|10=024|
10:58:14.933 [info]   OUT [WARMM_EXSIM]:  8=FIX.4.4|9=200|35=8|49=W_TEXE1|56=W_SMTE1|34=2189|43=N|52=20170819-14:58:14.933|11=WARMUP1347249341|17=90WARMUP13472493411002188|37=9991002188|39=0|150=0|38=2|44=1.1|54=1|55=X|15=GBP|22=5|48=VODl.CHI|6=0|14=0|151=2|10=019|
10:58:14.933 [info]    IN [WARMM_OM_2_SRV]: 8=FIX.4.4|9=200|35=8|49=W_TEXE1|56=W_SMTE1|34=2189|43=N|52=20170819-14:58:14.933|11=WARMUP1347249341|17=90WARMUP13472493411002188|37=9991002188|39=0|150=0|38=2|44=1.1|54=1|55=X|15=GBP|22=5|48=VODl.CHI|6=0|14=0|151=2|10=019|
10:58:14.933 [Warn]  WARMM_OM2CLT Slow consumer delayed write : 5 micros , numWrites=1
10:58:14.933 [info]   OUT [WARMM_OM2CLT]:  8=FIX.4.4|9=200|35=8|49=W_SMTC1|56=W_TCLT1|34=2242|43=N|52=20170819-14:58:14.933|11=WARMUP1347249341|17=90WARMUP13472493411002188|37=9991002188|39=0|150=0|38=2|44=1.1|54=1|55=X|15=GBP|22=5|48=VODl.CHI|6=0|14=0|151=2|10=008|     [37,61,18]
10:58:14.933 [info]    IN [WARMM_CLIENTSIM]: 8=FIX.4.4|9=200|35=8|49=W_SMTC1|56=W_TCLT1|34=2242|43=N|52=20170819-14:58:14.933|11=WARMUP1347249341|17=90WARMUP13472493411002188|37=9991002188|39=0|150=0|38=2|44=1.1|54=1|55=X|15=GBP|22=5|48=VODl.CHI|6=0|14=0|151=2|10=008|
10:58:14.934 [Warn]  WARMM_CLIENTSIM Slow consumer delayed write : 23 micros , numWrites=1
10:58:14.934 [info]   OUT [WARMM_CLIENTSIM]:  8=FIX.4.4|9=193|35=D|49=W_TCLT1|56=W_SMTC1|34=2243|43=N|52=20170819-14:58:14.934|11=WARMUP1347249342|59=0|22=5|48=VODl.CHI|38=2|44=1.1|15=GBP|40=2|54=1|55=X|21=1|60=20170819-14:58:14.934|526=WARMUP13472493420|10=016|
10:58:14.934 [info]    IN [WARMM_OM2CLT]: 8=FIX.4.4|9=193|35=D|49=W_TCLT1|56=W_SMTC1|34=2243|43=N|52=20170819-14:58:14.934|11=WARMUP1347249342|59=0|22=5|48=VODl.CHI|38=2|44=1.1|15=GBP|40=2|54=1|55=X|21=1|60=20170819-14:58:14.934|526=WARMUP13472493420|10=016|
10:58:14.934 [Warn]  WARMM_OM_2_SRV Slow consumer delayed write : 11 micros , numWrites=1
10:58:14.934 [info]   OUT [WARMM_OM_2_SRV]:  8=FIX.4.4|9=198|35=D|49=W_SMTE1|56=W_TEXE1|34=2190|43=N|52=20170819-14:58:14.934|11=WARMUP1347249342|59=0|22=5|48=VODl.CHI|38=2|44=1.1|15=GBP|40=2|54=1|55=X|21=1|60=20170819-14:58:14.934|526=WARMUP1347249342|528=P|10=020|
10:58:14.934 [info]    IN [WARMM_EXSIM]: 8=FIX.4.4|9=198|35=D|49=W_SMTE1|56=W_TEXE1|34=2190|43=N|52=20170819-14:58:14.934|11=WARMUP1347249342|59=0|22=5|48=VODl.CHI|38=2|44=1.1|15=GBP|40=2|54=1|55=X|21=1|60=20170819-14:58:14.934|526=WARMUP1347249342|528=P|10=020|
10:58:14.934 [info]   OUT [WARMM_EXSIM]:  8=FIX.4.4|9=200|35=8|49=W_TEXE1|56=W_SMTE1|34=2190|43=N|52=20170819-14:58:14.934|11=WARMUP1347249342|17=90WARMUP13472493421002189|37=9991002189|39=0|150=0|38=2|44=1.1|54=1|55=X|15=GBP|22=5|48=VODl.CHI|6=0|14=0|151=2|10=016|
10:58:14.934 [info]    IN [WARMM_OM_2_SRV]: 8=FIX.4.4|9=200|35=8|49=W_TEXE1|56=W_SMTE1|34=2190|43=N|52=20170819-14:58:14.934|11=WARMUP1347249342|17=90WARMUP13472493421002189|37=9991002189|39=0|150=0|38=2|44=1.1|54=1|55=X|15=GBP|22=5|48=VODl.CHI|6=0|14=0|151=2|10=016|
10:58:14.934 [Warn]  WARMM_OM2CLT Slow consumer delayed write : 5 micros , numWrites=1
10:58:14.934 [info]   OUT [WARMM_OM2CLT]:  8=FIX.4.4|9=200|35=8|49=W_SMTC1|56=W_TCLT1|34=2243|43=N|52=20170819-14:58:14.934|11=WARMUP1347249342|17=90WARMUP13472493421002189|37=9991002189|39=0|150=0|38=2|44=1.1|54=1|55=X|15=GBP|22=5|48=VODl.CHI|6=0|14=0|151=2|10=014|     [27,82,19]
10:58:14.934 [info]    IN [WARMM_CLIENTSIM]: 8=FIX.4.4|9=200|35=8|49=W_SMTC1|56=W_TCLT1|34=2243|43=N|52=20170819-14:58:14.934|11=WARMUP1347249342|17=90WARMUP13472493421002189|37=9991002189|39=0|150=0|38=2|44=1.1|54=1|55=X|15=GBP|22=5|48=VODl.CHI|6=0|14=0|151=2|10=014|
10:58:14.936 [Warn]  WARMM_CLIENTSIM Slow consumer delayed write : 46 micros , numWrites=1
10:58:14.936 [info]   OUT [WARMM_CLIENTSIM]:  8=FIX.4.4|9=193|35=D|49=W_TCLT1|56=W_SMTC1|34=2244|43=N|52=20170819-14:58:14.935|11=WARMUP1347249343|59=0|22=5|48=VODl.CHI|38=2|44=1.1|15=GBP|40=2|54=1|55=X|21=1|60=20170819-14:58:14.935|526=WARMUP13472493430|10=021|
10:58:14.936 [info]    IN [WARMM_OM2CLT]: 8=FIX.4.4|9=193|35=D|49=W_TCLT1|56=W_SMTC1|34=2244|43=N|52=20170819-14:58:14.935|11=WARMUP1347249343|59=0|22=5|48=VODl.CHI|38=2|44=1.1|15=GBP|40=2|54=1|55=X|21=1|60=20170819-14:58:14.935|526=WARMUP13472493430|10=021|
10:58:14.936 [Warn]  WARMM_OM_2_SRV Slow consumer delayed write : 15 micros , numWrites=1
10:58:14.936 [info]   OUT [WARMM_OM_2_SRV]:  8=FIX.4.4|9=198|35=D|49=W_SMTE1|56=W_TEXE1|34=2191|43=N|52=20170819-14:58:14.936|11=WARMUP1347249343|59=0|22=5|48=VODl.CHI|38=2|44=1.1|15=GBP|40=2|54=1|55=X|21=1|60=20170819-14:58:14.936|526=WARMUP1347249343|528=P|10=027|
10:58:14.936 [info]    IN [WARMM_EXSIM]: 8=FIX.4.4|9=198|35=D|49=W_SMTE1|56=W_TEXE1|34=2191|43=N|52=20170819-14:58:14.936|11=WARMUP1347249343|59=0|22=5|48=VODl.CHI|38=2|44=1.1|15=GBP|40=2|54=1|55=X|21=1|60=20170819-14:58:14.936|526=WARMUP1347249343|528=P|10=027|
10:58:14.936 [info]   OUT [WARMM_EXSIM]:  8=FIX.4.4|9=200|35=8|49=W_TEXE1|56=W_SMTE1|34=2191|43=N|52=20170819-14:58:14.936|11=WARMUP1347249343|17=90WARMUP13472493431002190|37=9991002190|39=0|150=0|38=2|44=1.1|54=1|55=X|15=GBP|22=5|48=VODl.CHI|6=0|14=0|151=2|10=005|
10:58:14.936 [info]    IN [WARMM_OM_2_SRV]: 8=FIX.4.4|9=200|35=8|49=W_TEXE1|56=W_SMTE1|34=2191|43=N|52=20170819-14:58:14.936|11=WARMUP1347249343|17=90WARMUP13472493431002190|37=9991002190|39=0|150=0|38=2|44=1.1|54=1|55=X|15=GBP|22=5|48=VODl.CHI|6=0|14=0|151=2|10=005|
10:58:14.936 [Warn]  WARMM_OM2CLT Slow consumer delayed write : 10 micros , numWrites=1
10:58:14.936 [info]   OUT [WARMM_OM2CLT]:  8=FIX.4.4|9=200|35=8|49=W_SMTC1|56=W_TCLT1|34=2244|43=N|52=20170819-14:58:14.936|11=WARMUP1347249343|17=90WARMUP13472493431002190|37=9991002190|39=0|150=0|38=2|44=1.1|54=1|55=X|15=GBP|22=5|48=VODl.CHI|6=0|14=0|151=2|10=003|     [31,140,27]
10:58:14.936 [info]    IN [WARMM_CLIENTSIM]: 8=FIX.4.4|9=200|35=8|49=W_SMTC1|56=W_TCLT1|34=2244|43=N|52=20170819-14:58:14.936|11=WARMUP1347249343|17=90WARMUP13472493431002190|37=9991002190|39=0|150=0|38=2|44=1.1|54=1|55=X|15=GBP|22=5|48=VODl.CHI|6=0|14=0|151=2|10=003|
10:58:14.937 [Warn]  WARMM_CLIENTSIM Slow consumer delayed write : 49 micros , numWrites=1
10:58:14.937 [info]   OUT [WARMM_CLIENTSIM]:  8=FIX.4.4|9=193|35=D|49=W_TCLT1|56=W_SMTC1|34=2245|43=N|52=20170819-14:58:14.937|11=WARMUP1347249344|59=0|22=5|48=VODl.CHI|38=2|44=1.1|15=GBP|40=2|54=1|55=X|21=1|60=20170819-14:58:14.937|526=WARMUP13472493440|10=028|
10:58:14.937 [info]    IN [WARMM_OM2CLT]: 8=FIX.4.4|9=193|35=D|49=W_TCLT1|56=W_SMTC1|34=2245|43=N|52=20170819-14:58:14.937|11=WARMUP1347249344|59=0|22=5|48=VODl.CHI|38=2|44=1.1|15=GBP|40=2|54=1|55=X|21=1|60=20170819-14:58:14.937|526=WARMUP13472493440|10=028|
10:58:14.937 [Warn]  WARMM_OM_2_SRV Slow consumer delayed write : 21 micros , numWrites=1
10:58:14.937 [info]   OUT [WARMM_OM_2_SRV]:  8=FIX.4.4|9=198|35=D|49=W_SMTE1|56=W_TEXE1|34=2192|43=N|52=20170819-14:58:14.937|11=WARMUP1347249344|59=0|22=5|48=VODl.CHI|38=2|44=1.1|15=GBP|40=2|54=1|55=X|21=1|60=20170819-14:58:14.937|526=WARMUP1347249344|528=P|10=032|
10:58:14.937 [info]    IN [WARMM_EXSIM]: 8=FIX.4.4|9=198|35=D|49=W_SMTE1|56=W_TEXE1|34=2192|43=N|52=20170819-14:58:14.937|11=WARMUP1347249344|59=0|22=5|48=VODl.CHI|38=2|44=1.1|15=GBP|40=2|54=1|55=X|21=1|60=20170819-14:58:14.937|526=WARMUP1347249344|528=P|10=032|
10:58:14.937 [info]   OUT [WARMM_EXSIM]:  8=FIX.4.4|9=200|35=8|49=W_TEXE1|56=W_SMTE1|34=2192|43=N|52=20170819-14:58:14.937|11=WARMUP1347249344|17=90WARMUP13472493441002191|37=9991002191|39=0|150=0|38=2|44=1.1|54=1|55=X|15=GBP|22=5|48=VODl.CHI|6=0|14=0|151=2|10=011|
10:58:14.937 [info]    IN [WARMM_OM_2_SRV]: 8=FIX.4.4|9=200|35=8|49=W_TEXE1|56=W_SMTE1|34=2192|43=N|52=20170819-14:58:14.937|11=WARMUP1347249344|17=90WARMUP13472493441002191|37=9991002191|39=0|150=0|38=2|44=1.1|54=1|55=X|15=GBP|22=5|48=VODl.CHI|6=0|14=0|151=2|10=011|
10:58:14.937 [Warn]  WARMM_OM2CLT Slow consumer delayed write : 16 micros , numWrites=1
10:58:14.937 [info]   OUT [WARMM_OM2CLT]:  8=FIX.4.4|9=200|35=8|49=W_SMTC1|56=W_TCLT1|34=2245|43=N|52=20170819-14:58:14.937|11=WARMUP1347249344|17=90WARMUP13472493441002191|37=9991002191|39=0|150=0|38=2|44=1.1|54=1|55=X|15=GBP|22=5|48=VODl.CHI|6=0|14=0|151=2|10=009|     [72,236,55]
10:58:14.937 [info]    IN [WARMM_CLIENTSIM]: 8=FIX.4.4|9=200|35=8|49=W_SMTC1|56=W_TCLT1|34=2245|43=N|52=20170819-14:58:14.937|11=WARMUP1347249344|17=90WARMUP13472493441002191|37=9991002191|39=0|150=0|38=2|44=1.1|54=1|55=X|15=GBP|22=5|48=VODl.CHI|6=0|14=0|151=2|10=009|
10:58:14.938 [Warn]  WARMM_CLIENTSIM Slow consumer delayed write : 44 micros , numWrites=1
10:58:14.938 [info]   OUT [WARMM_CLIENTSIM]:  8=FIX.4.4|9=193|35=D|49=W_TCLT1|56=W_SMTC1|34=2246|43=N|52=20170819-14:58:14.938|11=WARMUP1347249345|59=0|22=5|48=VODl.CHI|38=2|44=1.1|15=GBP|40=2|54=1|55=X|21=1|60=20170819-14:58:14.938|526=WARMUP13472493450|10=033|
10:58:14.938 [info]    IN [WARMM_OM2CLT]: 8=FIX.4.4|9=193|35=D|49=W_TCLT1|56=W_SMTC1|34=2246|43=N|52=20170819-14:58:14.938|11=WARMUP1347249345|59=0|22=5|48=VODl.CHI|38=2|44=1.1|15=GBP|40=2|54=1|55=X|21=1|60=20170819-14:58:14.938|526=WARMUP13472493450|10=033|
10:58:14.938 [Warn]  WARMM_OM_2_SRV Slow consumer delayed write : 12 micros , numWrites=1
10:58:14.938 [info]   OUT [WARMM_OM_2_SRV]:  8=FIX.4.4|9=198|35=D|49=W_SMTE1|56=W_TEXE1|34=2193|43=N|52=20170819-14:58:14.938|11=WARMUP1347249345|59=0|22=5|48=VODl.CHI|38=2|44=1.1|15=GBP|40=2|54=1|55=X|21=1|60=20170819-14:58:14.938|526=WARMUP1347249345|528=P|10=037|
10:58:14.938 [info]    IN [WARMM_EXSIM]: 8=FIX.4.4|9=198|35=D|49=W_SMTE1|56=W_TEXE1|34=2193|43=N|52=20170819-14:58:14.938|11=WARMUP1347249345|59=0|22=5|48=VODl.CHI|38=2|44=1.1|15=GBP|40=2|54=1|55=X|21=1|60=20170819-14:58:14.938|526=WARMUP1347249345|528=P|10=037|
10:58:14.938 [info]   OUT [WARMM_EXSIM]:  8=FIX.4.4|9=200|35=8|49=W_TEXE1|56=W_SMTE1|34=2193|43=N|52=20170819-14:58:14.938|11=WARMUP1347249345|17=90WARMUP13472493451002192|37=9991002192|39=0|150=0|38=2|44=1.1|54=1|55=X|15=GBP|22=5|48=VODl.CHI|6=0|14=0|151=2|10=017|
10:58:14.938 [info]    IN [WARMM_OM_2_SRV]: 8=FIX.4.4|9=200|35=8|49=W_TEXE1|56=W_SMTE1|34=2193|43=N|52=20170819-14:58:14.938|11=WARMUP1347249345|17=90WARMUP13472493451002192|37=9991002192|39=0|150=0|38=2|44=1.1|54=1|55=X|15=GBP|22=5|48=VODl.CHI|6=0|14=0|151=2|10=017|
10:58:14.938 [Warn]  WARMM_OM2CLT Slow consumer delayed write : 24 micros , numWrites=1
10:58:14.938 [info]   OUT [WARMM_OM2CLT]:  8=FIX.4.4|9=200|35=8|49=W_SMTC1|56=W_TCLT1|34=2246|43=N|52=20170819-14:58:14.938|11=WARMUP1347249345|17=90WARMUP13472493451002192|37=9991002192|39=0|150=0|38=2|44=1.1|54=1|55=X|15=GBP|22=5|48=VODl.CHI|6=0|14=0|151=2|10=015|     [74,82,25]
10:58:14.938 [info]    IN [WARMM_CLIENTSIM]: 8=FIX.4.4|9=200|35=8|49=W_SMTC1|56=W_TCLT1|34=2246|43=N|52=20170819-14:58:14.938|11=WARMUP1347249345|17=90WARMUP13472493451002192|37=9991002192|39=0|150=0|38=2|44=1.1|54=1|55=X|15=GBP|22=5|48=VODl.CHI|6=0|14=0|151=2|10=015|
10:58:14.939 [Warn]  WARMM_CLIENTSIM Slow consumer delayed write : 15 micros , numWrites=1
10:58:14.939 [info]   OUT [WARMM_CLIENTSIM]:  8=FIX.4.4|9=193|35=D|49=W_TCLT1|56=W_SMTC1|34=2247|43=N|52=20170819-14:58:14.939|11=WARMUP1347249346|59=0|22=5|48=VODl.CHI|38=2|44=1.1|15=GBP|40=2|54=1|55=X|21=1|60=20170819-14:58:14.939|526=WARMUP13472493460|10=038|
10:58:14.939 [info]    IN [WARMM_OM2CLT]: 8=FIX.4.4|9=193|35=D|49=W_TCLT1|56=W_SMTC1|34=2247|43=N|52=20170819-14:58:14.939|11=WARMUP1347249346|59=0|22=5|48=VODl.CHI|38=2|44=1.1|15=GBP|40=2|54=1|55=X|21=1|60=20170819-14:58:14.939|526=WARMUP13472493460|10=038|
10:58:14.939 [Warn]  WARMM_OM_2_SRV Slow consumer delayed write : 7 micros , numWrites=1
10:58:14.939 [info]   OUT [WARMM_OM_2_SRV]:  8=FIX.4.4|9=198|35=D|49=W_SMTE1|56=W_TEXE1|34=2194|43=N|52=20170819-14:58:14.939|11=WARMUP1347249346|59=0|22=5|48=VODl.CHI|38=2|44=1.1|15=GBP|40=2|54=1|55=X|21=1|60=20170819-14:58:14.939|526=WARMUP1347249346|528=P|10=042|
10:58:14.939 [info]    IN [WARMM_EXSIM]: 8=FIX.4.4|9=198|35=D|49=W_SMTE1|56=W_TEXE1|34=2194|43=N|52=20170819-14:58:14.939|11=WARMUP1347249346|59=0|22=5|48=VODl.CHI|38=2|44=1.1|15=GBP|40=2|54=1|55=X|21=1|60=20170819-14:58:14.939|526=WARMUP1347249346|528=P|10=042|
10:58:14.939 [info]   OUT [WARMM_EXSIM]:  8=FIX.4.4|9=200|35=8|49=W_TEXE1|56=W_SMTE1|34=2194|43=N|52=20170819-14:58:14.939|11=WARMUP1347249346|17=90WARMUP13472493461002193|37=9991002193|39=0|150=0|38=2|44=1.1|54=1|55=X|15=GBP|22=5|48=VODl.CHI|6=0|14=0|151=2|10=023|
10:58:14.939 [info]    IN [WARMM_OM_2_SRV]: 8=FIX.4.4|9=200|35=8|49=W_TEXE1|56=W_SMTE1|34=2194|43=N|52=20170819-14:58:14.939|11=WARMUP1347249346|17=90WARMUP13472493461002193|37=9991002193|39=0|150=0|38=2|44=1.1|54=1|55=X|15=GBP|22=5|48=VODl.CHI|6=0|14=0|151=2|10=023|
10:58:14.939 [Warn]  WARMM_OM2CLT Slow consumer delayed write : 5 micros , numWrites=1
10:58:14.939 [info]   OUT [WARMM_OM2CLT]:  8=FIX.4.4|9=200|35=8|49=W_SMTC1|56=W_TCLT1|34=2247|43=N|52=20170819-14:58:14.939|11=WARMUP1347249346|17=90WARMUP13472493461002193|37=9991002193|39=0|150=0|38=2|44=1.1|54=1|55=X|15=GBP|22=5|48=VODl.CHI|6=0|14=0|151=2|10=021|     [34,60,22]
10:58:14.939 [info]    IN [WARMM_CLIENTSIM]: 8=FIX.4.4|9=200|35=8|49=W_SMTC1|56=W_TCLT1|34=2247|43=N|52=20170819-14:58:14.939|11=WARMUP1347249346|17=90WARMUP13472493461002193|37=9991002193|39=0|150=0|38=2|44=1.1|54=1|55=X|15=GBP|22=5|48=VODl.CHI|6=0|14=0|151=2|10=021|
10:58:14.940 [Warn]  WARMM_CLIENTSIM Slow consumer delayed write : 5 micros , numWrites=1
10:58:14.940 [info]   OUT [WARMM_CLIENTSIM]:  8=FIX.4.4|9=193|35=D|49=W_TCLT1|56=W_SMTC1|34=2248|43=N|52=20170819-14:58:14.940|11=WARMUP1347249347|59=0|22=5|48=VODl.CHI|38=2|44=1.1|15=GBP|40=2|54=1|55=X|21=1|60=20170819-14:58:14.940|526=WARMUP13472493470|10=025|
10:58:14.940 [info]    IN [WARMM_OM2CLT]: 8=FIX.4.4|9=193|35=D|49=W_TCLT1|56=W_SMTC1|34=2248|43=N|52=20170819-14:58:14.940|11=WARMUP1347249347|59=0|22=5|48=VODl.CHI|38=2|44=1.1|15=GBP|40=2|54=1|55=X|21=1|60=20170819-14:58:14.940|526=WARMUP13472493470|10=025|
10:58:14.941 [Warn]  WARMM_OM_2_SRV Slow consumer delayed write : 6 micros , numWrites=1
10:58:14.941 [info]   OUT [WARMM_OM_2_SRV]:  8=FIX.4.4|9=198|35=D|49=W_SMTE1|56=W_TEXE1|34=2195|43=N|52=20170819-14:58:14.941|11=WARMUP1347249347|59=0|22=5|48=VODl.CHI|38=2|44=1.1|15=GBP|40=2|54=1|55=X|21=1|60=20170819-14:58:14.941|526=WARMUP1347249347|528=P|10=031|
10:58:14.941 [info]    IN [WARMM_EXSIM]: 8=FIX.4.4|9=198|35=D|49=W_SMTE1|56=W_TEXE1|34=2195|43=N|52=20170819-14:58:14.941|11=WARMUP1347249347|59=0|22=5|48=VODl.CHI|38=2|44=1.1|15=GBP|40=2|54=1|55=X|21=1|60=20170819-14:58:14.941|526=WARMUP1347249347|528=P|10=031|
10:58:14.941 [info]   OUT [WARMM_EXSIM]:  8=FIX.4.4|9=200|35=8|49=W_TEXE1|56=W_SMTE1|34=2195|43=N|52=20170819-14:58:14.941|11=WARMUP1347249347|17=90WARMUP13472493471002194|37=9991002194|39=0|150=0|38=2|44=1.1|54=1|55=X|15=GBP|22=5|48=VODl.CHI|6=0|14=0|151=2|10=021|
10:58:14.941 [info]    IN [WARMM_OM_2_SRV]: 8=FIX.4.4|9=200|35=8|49=W_TEXE1|56=W_SMTE1|34=2195|43=N|52=20170819-14:58:14.941|11=WARMUP1347249347|17=90WARMUP13472493471002194|37=9991002194|39=0|150=0|38=2|44=1.1|54=1|55=X|15=GBP|22=5|48=VODl.CHI|6=0|14=0|151=2|10=021|
10:58:14.941 [Warn]  WARMM_OM2CLT Slow consumer delayed write : 5 micros , numWrites=1
10:58:14.941 [info]   OUT [WARMM_OM2CLT]:  8=FIX.4.4|9=200|35=8|49=W_SMTC1|56=W_TCLT1|34=2248|43=N|52=20170819-14:58:14.941|11=WARMUP1347249347|17=90WARMUP13472493471002194|37=9991002194|39=0|150=0|38=2|44=1.1|54=1|55=X|15=GBP|22=5|48=VODl.CHI|6=0|14=0|151=2|10=019|     [17,50,16]
10:58:14.941 [info]    IN [WARMM_CLIENTSIM]: 8=FIX.4.4|9=200|35=8|49=W_SMTC1|56=W_TCLT1|34=2248|43=N|52=20170819-14:58:14.941|11=WARMUP1347249347|17=90WARMUP13472493471002194|37=9991002194|39=0|150=0|38=2|44=1.1|54=1|55=X|15=GBP|22=5|48=VODl.CHI|6=0|14=0|151=2|10=019|
10:58:14.942 [Warn]  WARMM_CLIENTSIM Slow consumer delayed write : 5 micros , numWrites=1
10:58:14.942 [info]   OUT [WARMM_CLIENTSIM]:  8=FIX.4.4|9=193|35=D|49=W_TCLT1|56=W_SMTC1|34=2249|43=N|52=20170819-14:58:14.942|11=WARMUP1347249348|59=0|22=5|48=VODl.CHI|38=2|44=1.1|15=GBP|40=2|54=1|55=X|21=1|60=20170819-14:58:14.942|526=WARMUP13472493480|10=032|
10:58:14.942 [info]    IN [WARMM_OM2CLT]: 8=FIX.4.4|9=193|35=D|49=W_TCLT1|56=W_SMTC1|34=2249|43=N|52=20170819-14:58:14.942|11=WARMUP1347249348|59=0|22=5|48=VODl.CHI|38=2|44=1.1|15=GBP|40=2|54=1|55=X|21=1|60=20170819-14:58:14.942|526=WARMUP13472493480|10=032|
10:58:14.942 [Warn]  WARMM_OM_2_SRV Slow consumer delayed write : 5 micros , numWrites=1
10:58:14.942 [info]   OUT [WARMM_OM_2_SRV]:  8=FIX.4.4|9=198|35=D|49=W_SMTE1|56=W_TEXE1|34=2196|43=N|52=20170819-14:58:14.942|11=WARMUP1347249348|59=0|22=5|48=VODl.CHI|38=2|44=1.1|15=GBP|40=2|54=1|55=X|21=1|60=20170819-14:58:14.942|526=WARMUP1347249348|528=P|10=036|
10:58:14.942 [info]    IN [WARMM_EXSIM]: 8=FIX.4.4|9=198|35=D|49=W_SMTE1|56=W_TEXE1|34=2196|43=N|52=20170819-14:58:14.942|11=WARMUP1347249348|59=0|22=5|48=VODl.CHI|38=2|44=1.1|15=GBP|40=2|54=1|55=X|21=1|60=20170819-14:58:14.942|526=WARMUP1347249348|528=P|10=036|
10:58:14.942 [info]   OUT [WARMM_EXSIM]:  8=FIX.4.4|9=200|35=8|49=W_TEXE1|56=W_SMTE1|34=2196|43=N|52=20170819-14:58:14.942|11=WARMUP1347249348|17=90WARMUP13472493481002195|37=9991002195|39=0|150=0|38=2|44=1.1|54=1|55=X|15=GBP|22=5|48=VODl.CHI|6=0|14=0|151=2|10=027|
10:58:14.942 [info]    IN [WARMM_OM_2_SRV]: 8=FIX.4.4|9=200|35=8|49=W_TEXE1|56=W_SMTE1|34=2196|43=N|52=20170819-14:58:14.942|11=WARMUP1347249348|17=90WARMUP13472493481002195|37=9991002195|39=0|150=0|38=2|44=1.1|54=1|55=X|15=GBP|22=5|48=VODl.CHI|6=0|14=0|151=2|10=027|
10:58:14.942 [Warn]  WARMM_OM2CLT Slow consumer delayed write : 6 micros , numWrites=1
10:58:14.942 [info]   OUT [WARMM_OM2CLT]:  8=FIX.4.4|9=200|35=8|49=W_SMTC1|56=W_TCLT1|34=2249|43=N|52=20170819-14:58:14.942|11=WARMUP1347249348|17=90WARMUP13472493481002195|37=9991002195|39=0|150=0|38=2|44=1.1|54=1|55=X|15=GBP|22=5|48=VODl.CHI|6=0|14=0|151=2|10=025|     [31,51,15]
10:58:14.942 [info]    IN [WARMM_CLIENTSIM]: 8=FIX.4.4|9=200|35=8|49=W_SMTC1|56=W_TCLT1|34=2249|43=N|52=20170819-14:58:14.942|11=WARMUP1347249348|17=90WARMUP13472493481002195|37=9991002195|39=0|150=0|38=2|44=1.1|54=1|55=X|15=GBP|22=5|48=VODl.CHI|6=0|14=0|151=2|10=025|
10:58:14.943 [Warn]  WARMM_CLIENTSIM Slow consumer delayed write : 16 micros , numWrites=1
10:58:14.943 [info]   OUT [WARMM_CLIENTSIM]:  8=FIX.4.4|9=193|35=D|49=W_TCLT1|56=W_SMTC1|34=2250|43=N|52=20170819-14:58:14.943|11=WARMUP1347249349|59=0|22=5|48=VODl.CHI|38=2|44=1.1|15=GBP|40=2|54=1|55=X|21=1|60=20170819-14:58:14.943|526=WARMUP13472493490|10=028|
10:58:14.943 [info]    IN [WARMM_OM2CLT]: 8=FIX.4.4|9=193|35=D|49=W_TCLT1|56=W_SMTC1|34=2250|43=N|52=20170819-14:58:14.943|11=WARMUP1347249349|59=0|22=5|48=VODl.CHI|38=2|44=1.1|15=GBP|40=2|54=1|55=X|21=1|60=20170819-14:58:14.943|526=WARMUP13472493490|10=028|
10:58:14.943 [Warn]  WARMM_OM_2_SRV Slow consumer delayed write : 7 micros , numWrites=1
10:58:14.943 [info]   OUT [WARMM_OM_2_SRV]:  8=FIX.4.4|9=198|35=D|49=W_SMTE1|56=W_TEXE1|34=2197|43=N|52=20170819-14:58:14.943|11=WARMUP1347249349|59=0|22=5|48=VODl.CHI|38=2|44=1.1|15=GBP|40=2|54=1|55=X|21=1|60=20170819-14:58:14.943|526=WARMUP1347249349|528=P|10=041|
10:58:14.943 [info]    IN [WARMM_EXSIM]: 8=FIX.4.4|9=198|35=D|49=W_SMTE1|56=W_TEXE1|34=2197|43=N|52=20170819-14:58:14.943|11=WARMUP1347249349|59=0|22=5|48=VODl.CHI|38=2|44=1.1|15=GBP|40=2|54=1|55=X|21=1|60=20170819-14:58:14.943|526=WARMUP1347249349|528=P|10=041|
10:58:14.943 [info]  MemMapPageMgr PRELOADED getPage delay us=4 page=122 name=WARMM_EXSIM_EXSIM_IN
10:58:14.943 [info]   OUT [WARMM_EXSIM]:  8=FIX.4.4|9=200|35=8|49=W_TEXE1|56=W_SMTE1|34=2197|43=N|52=20170819-14:58:14.943|11=WARMUP1347249349|17=90WARMUP13472493491002196|37=9991002196|39=0|150=0|38=2|44=1.1|54=1|55=X|15=GBP|22=5|48=VODl.CHI|6=0|14=0|151=2|10=033|
10:58:14.943 [info]    IN [WARMM_OM_2_SRV]: 8=FIX.4.4|9=200|35=8|49=W_TEXE1|56=W_SMTE1|34=2197|43=N|52=20170819-14:58:14.943|11=WARMUP1347249349|17=90WARMUP13472493491002196|37=9991002196|39=0|150=0|38=2|44=1.1|54=1|55=X|15=GBP|22=5|48=VODl.CHI|6=0|14=0|151=2|10=033|
10:58:14.943 [Warn]  WARMM_OM2CLT Slow consumer delayed write : 5 micros , numWrites=1
10:58:14.943 [info]   OUT [WARMM_OM2CLT]:  8=FIX.4.4|9=200|35=8|49=W_SMTC1|56=W_TCLT1|34=2250|43=N|52=20170819-14:58:14.943|11=WARMUP1347249349|17=90WARMUP13472493491002196|37=9991002196|39=0|150=0|38=2|44=1.1|54=1|55=X|15=GBP|22=5|48=VODl.CHI|6=0|14=0|151=2|10=022|     [41,90,22]
10:58:14.943 [info]    IN [WARMM_CLIENTSIM]: 8=FIX.4.4|9=200|35=8|49=W_SMTC1|56=W_TCLT1|34=2250|43=N|52=20170819-14:58:14.943|11=WARMUP1347249349|17=90WARMUP13472493491002196|37=9991002196|39=0|150=0|38=2|44=1.1|54=1|55=X|15=GBP|22=5|48=VODl.CHI|6=0|14=0|151=2|10=022|
10:58:14.944 [Warn]  WARMM_CLIENTSIM Slow consumer delayed write : 5 micros , numWrites=1
10:58:14.944 [info]   OUT [WARMM_CLIENTSIM]:  8=FIX.4.4|9=193|35=D|49=W_TCLT1|56=W_SMTC1|34=2251|43=N|52=20170819-14:58:14.944|11=WARMUP1347249350|59=0|22=5|48=VODl.CHI|38=2|44=1.1|15=GBP|40=2|54=1|55=X|21=1|60=20170819-14:58:14.944|526=WARMUP13472493500|10=015|
10:58:14.944 [info]    IN [WARMM_OM2CLT]: 8=FIX.4.4|9=193|35=D|49=W_TCLT1|56=W_SMTC1|34=2251|43=N|52=20170819-14:58:14.944|11=WARMUP1347249350|59=0|22=5|48=VODl.CHI|38=2|44=1.1|15=GBP|40=2|54=1|55=X|21=1|60=20170819-14:58:14.944|526=WARMUP13472493500|10=015|
10:58:14.944 [Warn]  WARMM_OM_2_SRV Slow consumer delayed write : 5 micros , numWrites=1
10:58:14.944 [info]   OUT [WARMM_OM_2_SRV]:  8=FIX.4.4|9=198|35=D|49=W_SMTE1|56=W_TEXE1|34=2198|43=N|52=20170819-14:58:14.944|11=WARMUP1347249350|59=0|22=5|48=VODl.CHI|38=2|44=1.1|15=GBP|40=2|54=1|55=X|21=1|60=20170819-14:58:14.944|526=WARMUP1347249350|528=P|10=028|
10:58:14.944 [info]    IN [WARMM_EXSIM]: 8=FIX.4.4|9=198|35=D|49=W_SMTE1|56=W_TEXE1|34=2198|43=N|52=20170819-14:58:14.944|11=WARMUP1347249350|59=0|22=5|48=VODl.CHI|38=2|44=1.1|15=GBP|40=2|54=1|55=X|21=1|60=20170819-14:58:14.944|526=WARMUP1347249350|528=P|10=028|
10:58:14.944 [info]   OUT [WARMM_EXSIM]:  8=FIX.4.4|9=200|35=8|49=W_TEXE1|56=W_SMTE1|34=2198|43=N|52=20170819-14:58:14.944|11=WARMUP1347249350|17=90WARMUP13472493501002197|37=9991002197|39=0|150=0|38=2|44=1.1|54=1|55=X|15=GBP|22=5|48=VODl.CHI|6=0|14=0|151=2|10=021|
10:58:14.944 [info]    IN [WARMM_OM_2_SRV]: 8=FIX.4.4|9=200|35=8|49=W_TEXE1|56=W_SMTE1|34=2198|43=N|52=20170819-14:58:14.944|11=WARMUP1347249350|17=90WARMUP13472493501002197|37=9991002197|39=0|150=0|38=2|44=1.1|54=1|55=X|15=GBP|22=5|48=VODl.CHI|6=0|14=0|151=2|10=021|
10:58:14.944 [Warn]  WARMM_OM2CLT Slow consumer delayed write : 5 micros , numWrites=1
10:58:14.944 [info]   OUT [WARMM_OM2CLT]:  8=FIX.4.4|9=200|35=8|49=W_SMTC1|56=W_TCLT1|34=2251|43=N|52=20170819-14:58:14.944|11=WARMUP1347249350|17=90WARMUP13472493501002197|37=9991002197|39=0|150=0|38=2|44=1.1|54=1|55=X|15=GBP|22=5|48=VODl.CHI|6=0|14=0|151=2|10=010|     [16,49,12]
10:58:14.944 [info]    IN [WARMM_CLIENTSIM]: 8=FIX.4.4|9=200|35=8|49=W_SMTC1|56=W_TCLT1|34=2251|43=N|52=20170819-14:58:14.944|11=WARMUP1347249350|17=90WARMUP13472493501002197|37=9991002197|39=0|150=0|38=2|44=1.1|54=1|55=X|15=GBP|22=5|48=VODl.CHI|6=0|14=0|151=2|10=010|
10:58:14.945 [Warn]  MemMapPageMgr PRELOADED getPage delay us=12 page=125 name=WARMM_CLIENTSIM_CLTSIM_OUT
10:58:14.945 [Warn]  WARMM_CLIENTSIM Slow consumer delayed write : 18 micros , numWrites=1
10:58:14.945 [info]   OUT [WARMM_CLIENTSIM]:  8=FIX.4.4|9=193|35=D|49=W_TCLT1|56=W_SMTC1|34=2252|43=N|52=20170819-14:58:14.945|11=WARMUP1347249351|59=0|22=5|48=VODl.CHI|38=2|44=1.1|15=GBP|40=2|54=1|55=X|21=1|60=20170819-14:58:14.945|526=WARMUP13472493510|10=020|
10:58:14.945 [info]    IN [WARMM_OM2CLT]: 8=FIX.4.4|9=193|35=D|49=W_TCLT1|56=W_SMTC1|34=2252|43=N|52=20170819-14:58:14.945|11=WARMUP1347249351|59=0|22=5|48=VODl.CHI|38=2|44=1.1|15=GBP|40=2|54=1|55=X|21=1|60=20170819-14:58:14.945|526=WARMUP13472493510|10=020|
10:58:14.946 [Warn]  MemMapPageMgr PRELOADED getPage delay us=5 page=125 name=WARMM_OM2CLT_CLT_IN
10:58:14.946 [Warn]  WARMM_OM_2_SRV Slow consumer delayed write : 22 micros , numWrites=1
10:58:14.946 [info]   OUT [WARMM_OM_2_SRV]:  8=FIX.4.4|9=198|35=D|49=W_SMTE1|56=W_TEXE1|34=2199|43=N|52=20170819-14:58:14.946|11=WARMUP1347249351|59=0|22=5|48=VODl.CHI|38=2|44=1.1|15=GBP|40=2|54=1|55=X|21=1|60=20170819-14:58:14.946|526=WARMUP1347249351|528=P|10=035|
10:58:14.946 [info]    IN [WARMM_EXSIM]: 8=FIX.4.4|9=198|35=D|49=W_SMTE1|56=W_TEXE1|34=2199|43=N|52=20170819-14:58:14.946|11=WARMUP1347249351|59=0|22=5|48=VODl.CHI|38=2|44=1.1|15=GBP|40=2|54=1|55=X|21=1|60=20170819-14:58:14.946|526=WARMUP1347249351|528=P|10=035|
10:58:14.946 [info]  MemMapPageMgr PRELOADED getPage delay us=4 page=129 name=WARMM_EXSIM_EXSIM_OUT
10:58:14.946 [info]   OUT [WARMM_EXSIM]:  8=FIX.4.4|9=200|35=8|49=W_TEXE1|56=W_SMTE1|34=2199|43=N|52=20170819-14:58:14.946|11=WARMUP1347249351|17=90WARMUP13472493511002198|37=9991002198|39=0|150=0|38=2|44=1.1|54=1|55=X|15=GBP|22=5|48=VODl.CHI|6=0|14=0|151=2|10=028|
10:58:14.946 [info]    IN [WARMM_OM_2_SRV]: 8=FIX.4.4|9=200|35=8|49=W_TEXE1|56=W_SMTE1|34=2199|43=N|52=20170819-14:58:14.946|11=WARMUP1347249351|17=90WARMUP13472493511002198|37=9991002198|39=0|150=0|38=2|44=1.1|54=1|55=X|15=GBP|22=5|48=VODl.CHI|6=0|14=0|151=2|10=028|
10:58:14.946 [info]  MemMapPageMgr PRELOADED getPage delay us=4 page=129 name=WARMM_OM_2_SRV_EXC1_IN
10:58:14.946 [Warn]  WARMM_OM2CLT Slow consumer delayed write : 12 micros , numWrites=1
10:58:14.946 [info]   OUT [WARMM_OM2CLT]:  8=FIX.4.4|9=200|35=8|49=W_SMTC1|56=W_TCLT1|34=2252|43=N|52=20170819-14:58:14.946|11=WARMUP1347249351|17=90WARMUP13472493511002198|37=9991002198|39=0|150=0|38=2|44=1.1|54=1|55=X|15=GBP|22=5|48=VODl.CHI|6=0|14=0|151=2|10=017|     [53,122,41]
10:58:14.946 [info]    IN [WARMM_CLIENTSIM]: 8=FIX.4.4|9=200|35=8|49=W_SMTC1|56=W_TCLT1|34=2252|43=N|52=20170819-14:58:14.946|11=WARMUP1347249351|17=90WARMUP13472493511002198|37=9991002198|39=0|150=0|38=2|44=1.1|54=1|55=X|15=GBP|22=5|48=VODl.CHI|6=0|14=0|151=2|10=017|
10:58:14.947 [Warn]  WARMM_CLIENTSIM Slow consumer delayed write : 12 micros , numWrites=1
10:58:14.947 [info]   OUT [WARMM_CLIENTSIM]:  8=FIX.4.4|9=193|35=D|49=W_TCLT1|56=W_SMTC1|34=2253|43=N|52=20170819-14:58:14.947|11=WARMUP1347249352|59=0|22=5|48=VODl.CHI|38=2|44=1.1|15=GBP|40=2|54=1|55=X|21=1|60=20170819-14:58:14.947|526=WARMUP13472493520|10=027|
10:58:14.947 [info]    IN [WARMM_OM2CLT]: 8=FIX.4.4|9=193|35=D|49=W_TCLT1|56=W_SMTC1|34=2253|43=N|52=20170819-14:58:14.947|11=WARMUP1347249352|59=0|22=5|48=VODl.CHI|38=2|44=1.1|15=GBP|40=2|54=1|55=X|21=1|60=20170819-14:58:14.947|526=WARMUP13472493520|10=027|
10:58:14.947 [Warn]  WARMM_OM_2_SRV Slow consumer delayed write : 6 micros , numWrites=1
10:58:14.947 [info]   OUT [WARMM_OM_2_SRV]:  8=FIX.4.4|9=198|35=D|49=W_SMTE1|56=W_TEXE1|34=2200|43=N|52=20170819-14:58:14.947|11=WARMUP1347249352|59=0|22=5|48=VODl.CHI|38=2|44=1.1|15=GBP|40=2|54=1|55=X|21=1|60=20170819-14:58:14.947|526=WARMUP1347249352|528=P|10=022|
10:58:14.947 [info]    IN [WARMM_EXSIM]: 8=FIX.4.4|9=198|35=D|49=W_SMTE1|56=W_TEXE1|34=2200|43=N|52=20170819-14:58:14.947|11=WARMUP1347249352|59=0|22=5|48=VODl.CHI|38=2|44=1.1|15=GBP|40=2|54=1|55=X|21=1|60=20170819-14:58:14.947|526=WARMUP1347249352|528=P|10=022|
10:58:14.947 [info]   OUT [WARMM_EXSIM]:  8=FIX.4.4|9=200|35=8|49=W_TEXE1|56=W_SMTE1|34=2200|43=N|52=20170819-14:58:14.947|11=WARMUP1347249352|17=90WARMUP13472493521002199|37=9991002199|39=0|150=0|38=2|44=1.1|54=1|55=X|15=GBP|22=5|48=VODl.CHI|6=0|14=0|151=2|10=016|
10:58:14.947 [info]    IN [WARMM_OM_2_SRV]: 8=FIX.4.4|9=200|35=8|49=W_TEXE1|56=W_SMTE1|34=2200|43=N|52=20170819-14:58:14.947|11=WARMUP1347249352|17=90WARMUP13472493521002199|37=9991002199|39=0|150=0|38=2|44=1.1|54=1|55=X|15=GBP|22=5|48=VODl.CHI|6=0|14=0|151=2|10=016|
10:58:14.947 [Warn]  WARMM_OM2CLT Slow consumer delayed write : 5 micros , numWrites=1
10:58:14.947 [info]   OUT [WARMM_OM2CLT]:  8=FIX.4.4|9=200|35=8|49=W_SMTC1|56=W_TCLT1|34=2253|43=N|52=20170819-14:58:14.947|11=WARMUP1347249352|17=90WARMUP13472493521002199|37=9991002199|39=0|150=0|38=2|44=1.1|54=1|55=X|15=GBP|22=5|48=VODl.CHI|6=0|14=0|151=2|10=023|     [32,59,18]
10:58:14.947 [info]    IN [WARMM_CLIENTSIM]: 8=FIX.4.4|9=200|35=8|49=W_SMTC1|56=W_TCLT1|34=2253|43=N|52=20170819-14:58:14.947|11=WARMUP1347249352|17=90WARMUP13472493521002199|37=9991002199|39=0|150=0|38=2|44=1.1|54=1|55=X|15=GBP|22=5|48=VODl.CHI|6=0|14=0|151=2|10=023|
10:58:14.948 [Warn]  WARMM_CLIENTSIM Slow consumer delayed write : 8 micros , numWrites=1
10:58:14.948 [info]   OUT [WARMM_CLIENTSIM]:  8=FIX.4.4|9=193|35=D|49=W_TCLT1|56=W_SMTC1|34=2254|43=N|52=20170819-14:58:14.948|11=WARMUP1347249353|59=0|22=5|48=VODl.CHI|38=2|44=1.1|15=GBP|40=2|54=1|55=X|21=1|60=20170819-14:58:14.948|526=WARMUP13472493530|10=032|
10:58:14.948 [info]    IN [WARMM_OM2CLT]: 8=FIX.4.4|9=193|35=D|49=W_TCLT1|56=W_SMTC1|34=2254|43=N|52=20170819-14:58:14.948|11=WARMUP1347249353|59=0|22=5|48=VODl.CHI|38=2|44=1.1|15=GBP|40=2|54=1|55=X|21=1|60=20170819-14:58:14.948|526=WARMUP13472493530|10=032|
10:58:14.948 [Warn]  WARMM_OM_2_SRV Slow consumer delayed write : 6 micros , numWrites=1
10:58:14.948 [info]   OUT [WARMM_OM_2_SRV]:  8=FIX.4.4|9=198|35=D|49=W_SMTE1|56=W_TEXE1|34=2201|43=N|52=20170819-14:58:14.948|11=WARMUP1347249353|59=0|22=5|48=VODl.CHI|38=2|44=1.1|15=GBP|40=2|54=1|55=X|21=1|60=20170819-14:58:14.948|526=WARMUP1347249353|528=P|10=027|
10:58:14.948 [info]    IN [WARMM_EXSIM]: 8=FIX.4.4|9=198|35=D|49=W_SMTE1|56=W_TEXE1|34=2201|43=N|52=20170819-14:58:14.948|11=WARMUP1347249353|59=0|22=5|48=VODl.CHI|38=2|44=1.1|15=GBP|40=2|54=1|55=X|21=1|60=20170819-14:58:14.948|526=WARMUP1347249353|528=P|10=027|
10:58:14.948 [info]   OUT [WARMM_EXSIM]:  8=FIX.4.4|9=200|35=8|49=W_TEXE1|56=W_SMTE1|34=2201|43=N|52=20170819-14:58:14.948|11=WARMUP1347249353|17=90WARMUP13472493531002200|37=9991002200|39=0|150=0|38=2|44=1.1|54=1|55=X|15=GBP|22=5|48=VODl.CHI|6=0|14=0|151=2|10=242|
10:58:14.948 [info]    IN [WARMM_OM_2_SRV]: 8=FIX.4.4|9=200|35=8|49=W_TEXE1|56=W_SMTE1|34=2201|43=N|52=20170819-14:58:14.948|11=WARMUP1347249353|17=90WARMUP13472493531002200|37=9991002200|39=0|150=0|38=2|44=1.1|54=1|55=X|15=GBP|22=5|48=VODl.CHI|6=0|14=0|151=2|10=242|
10:58:14.948 [info]  MemMapPageMgr PRELOADED getPage delay us=3 page=133 name=WARMM_OM2CLT_CLT_OUT
10:58:14.948 [Warn]  WARMM_OM2CLT Slow consumer delayed write : 15 micros , numWrites=1
10:58:14.948 [info]   OUT [WARMM_OM2CLT]:  8=FIX.4.4|9=200|35=8|49=W_SMTC1|56=W_TCLT1|34=2254|43=N|52=20170819-14:58:14.948|11=WARMUP1347249353|17=90WARMUP13472493531002200|37=9991002200|39=0|150=0|38=2|44=1.1|54=1|55=X|15=GBP|22=5|48=VODl.CHI|6=0|14=0|151=2|10=249|     [25,51,37]
10:58:14.948 [info]    IN [WARMM_CLIENTSIM]: 8=FIX.4.4|9=200|35=8|49=W_SMTC1|56=W_TCLT1|34=2254|43=N|52=20170819-14:58:14.948|11=WARMUP1347249353|17=90WARMUP13472493531002200|37=9991002200|39=0|150=0|38=2|44=1.1|54=1|55=X|15=GBP|22=5|48=VODl.CHI|6=0|14=0|151=2|10=249|
10:58:14.948 [Warn]  MemMapPageMgr PRELOADED getPage delay us=5 page=133 name=WARMM_CLIENTSIM_CLTSIM_IN
10:58:14.949 [Warn]  WARMM_CLIENTSIM Slow consumer delayed write : 13 micros , numWrites=1
10:58:14.949 [info]   OUT [WARMM_CLIENTSIM]:  8=FIX.4.4|9=193|35=D|49=W_TCLT1|56=W_SMTC1|34=2255|43=N|52=20170819-14:58:14.949|11=WARMUP1347249354|59=0|22=5|48=VODl.CHI|38=2|44=1.1|15=GBP|40=2|54=1|55=X|21=1|60=20170819-14:58:14.949|526=WARMUP13472493540|10=037|
10:58:14.949 [info]    IN [WARMM_OM2CLT]: 8=FIX.4.4|9=193|35=D|49=W_TCLT1|56=W_SMTC1|34=2255|43=N|52=20170819-14:58:14.949|11=WARMUP1347249354|59=0|22=5|48=VODl.CHI|38=2|44=1.1|15=GBP|40=2|54=1|55=X|21=1|60=20170819-14:58:14.949|526=WARMUP13472493540|10=037|
10:58:14.949 [Warn]  WARMM_OM_2_SRV Slow consumer delayed write : 11 micros , numWrites=1
10:58:14.949 [info]   OUT [WARMM_OM_2_SRV]:  8=FIX.4.4|9=198|35=D|49=W_SMTE1|56=W_TEXE1|34=2202|43=N|52=20170819-14:58:14.949|11=WARMUP1347249354|59=0|22=5|48=VODl.CHI|38=2|44=1.1|15=GBP|40=2|54=1|55=X|21=1|60=20170819-14:58:14.949|526=WARMUP1347249354|528=P|10=032|
10:58:14.949 [info]    IN [WARMM_EXSIM]: 8=FIX.4.4|9=198|35=D|49=W_SMTE1|56=W_TEXE1|34=2202|43=N|52=20170819-14:58:14.949|11=WARMUP1347249354|59=0|22=5|48=VODl.CHI|38=2|44=1.1|15=GBP|40=2|54=1|55=X|21=1|60=20170819-14:58:14.949|526=WARMUP1347249354|528=P|10=032|
10:58:14.949 [info]   OUT [WARMM_EXSIM]:  8=FIX.4.4|9=200|35=8|49=W_TEXE1|56=W_SMTE1|34=2202|43=N|52=20170819-14:58:14.949|11=WARMUP1347249354|17=90WARMUP13472493541002201|37=9991002201|39=0|150=0|38=2|44=1.1|54=1|55=X|15=GBP|22=5|48=VODl.CHI|6=0|14=0|151=2|10=248|
10:58:14.949 [info]    IN [WARMM_OM_2_SRV]: 8=FIX.4.4|9=200|35=8|49=W_TEXE1|56=W_SMTE1|34=2202|43=N|52=20170819-14:58:14.949|11=WARMUP1347249354|17=90WARMUP13472493541002201|37=9991002201|39=0|150=0|38=2|44=1.1|54=1|55=X|15=GBP|22=5|48=VODl.CHI|6=0|14=0|151=2|10=248|
10:58:14.949 [Warn]  WARMM_OM2CLT Slow consumer delayed write : 5 micros , numWrites=1
10:58:14.949 [info]   OUT [WARMM_OM2CLT]:  8=FIX.4.4|9=200|35=8|49=W_SMTC1|56=W_TCLT1|34=2255|43=N|52=20170819-14:58:14.949|11=WARMUP1347249354|17=90WARMUP13472493541002201|37=9991002201|39=0|150=0|38=2|44=1.1|54=1|55=X|15=GBP|22=5|48=VODl.CHI|6=0|14=0|151=2|10=255|     [41,91,23]
10:58:14.949 [info]    IN [WARMM_CLIENTSIM]: 8=FIX.4.4|9=200|35=8|49=W_SMTC1|56=W_TCLT1|34=2255|43=N|52=20170819-14:58:14.949|11=WARMUP1347249354|17=90WARMUP13472493541002201|37=9991002201|39=0|150=0|38=2|44=1.1|54=1|55=X|15=GBP|22=5|48=VODl.CHI|6=0|14=0|151=2|10=255|
10:58:14.951 [Warn]  WARMM_CLIENTSIM Slow consumer delayed write : 5 micros , numWrites=1
10:58:14.951 [info]   OUT [WARMM_CLIENTSIM]:  8=FIX.4.4|9=193|35=D|49=W_TCLT1|56=W_SMTC1|34=2256|43=N|52=20170819-14:58:14.951|11=WARMUP1347249355|59=0|22=5|48=VODl.CHI|38=2|44=1.1|15=GBP|40=2|54=1|55=X|21=1|60=20170819-14:58:14.951|526=WARMUP13472493550|10=026|
10:58:14.951 [info]    IN [WARMM_OM2CLT]: 8=FIX.4.4|9=193|35=D|49=W_TCLT1|56=W_SMTC1|34=2256|43=N|52=20170819-14:58:14.951|11=WARMUP1347249355|59=0|22=5|48=VODl.CHI|38=2|44=1.1|15=GBP|40=2|54=1|55=X|21=1|60=20170819-14:58:14.951|526=WARMUP13472493550|10=026|
10:58:14.951 [Warn]  WARMM_OM_2_SRV Slow consumer delayed write : 6 micros , numWrites=1
10:58:14.951 [info]   OUT [WARMM_OM_2_SRV]:  8=FIX.4.4|9=198|35=D|49=W_SMTE1|56=W_TEXE1|34=2203|43=N|52=20170819-14:58:14.951|11=WARMUP1347249355|59=0|22=5|48=VODl.CHI|38=2|44=1.1|15=GBP|40=2|54=1|55=X|21=1|60=20170819-14:58:14.951|526=WARMUP1347249355|528=P|10=021|
10:58:14.951 [info]    IN [WARMM_EXSIM]: 8=FIX.4.4|9=198|35=D|49=W_SMTE1|56=W_TEXE1|34=2203|43=N|52=20170819-14:58:14.951|11=WARMUP1347249355|59=0|22=5|48=VODl.CHI|38=2|44=1.1|15=GBP|40=2|54=1|55=X|21=1|60=20170819-14:58:14.951|526=WARMUP1347249355|528=P|10=021|
10:58:14.951 [info]   OUT [WARMM_EXSIM]:  8=FIX.4.4|9=200|35=8|49=W_TEXE1|56=W_SMTE1|34=2203|43=N|52=20170819-14:58:14.951|11=WARMUP1347249355|17=90WARMUP13472493551002202|37=9991002202|39=0|150=0|38=2|44=1.1|54=1|55=X|15=GBP|22=5|48=VODl.CHI|6=0|14=0|151=2|10=246|
10:58:14.951 [info]    IN [WARMM_OM_2_SRV]: 8=FIX.4.4|9=200|35=8|49=W_TEXE1|56=W_SMTE1|34=2203|43=N|52=20170819-14:58:14.951|11=WARMUP1347249355|17=90WARMUP13472493551002202|37=9991002202|39=0|150=0|38=2|44=1.1|54=1|55=X|15=GBP|22=5|48=VODl.CHI|6=0|14=0|151=2|10=246|
10:58:14.951 [Warn]  WARMM_OM2CLT Slow consumer delayed write : 5 micros , numWrites=1
10:58:14.951 [info]   OUT [WARMM_OM2CLT]:  8=FIX.4.4|9=200|35=8|49=W_SMTC1|56=W_TCLT1|34=2256|43=N|52=20170819-14:58:14.951|11=WARMUP1347249355|17=90WARMUP13472493551002202|37=9991002202|39=0|150=0|38=2|44=1.1|54=1|55=X|15=GBP|22=5|48=VODl.CHI|6=0|14=0|151=2|10=253|     [29,53,13]
10:58:14.951 [info]    IN [WARMM_CLIENTSIM]: 8=FIX.4.4|9=200|35=8|49=W_SMTC1|56=W_TCLT1|34=2256|43=N|52=20170819-14:58:14.951|11=WARMUP1347249355|17=90WARMUP13472493551002202|37=9991002202|39=0|150=0|38=2|44=1.1|54=1|55=X|15=GBP|22=5|48=VODl.CHI|6=0|14=0|151=2|10=253|
10:58:14.952 [Warn]  WARMM_CLIENTSIM Slow consumer delayed write : 38 micros , numWrites=1
10:58:14.952 [info]   OUT [WARMM_CLIENTSIM]:  8=FIX.4.4|9=193|35=D|49=W_TCLT1|56=W_SMTC1|34=2257|43=N|52=20170819-14:58:14.952|11=WARMUP1347249356|59=0|22=5|48=VODl.CHI|38=2|44=1.1|15=GBP|40=2|54=1|55=X|21=1|60=20170819-14:58:14.952|526=WARMUP13472493560|10=031|
10:58:14.952 [info]    IN [WARMM_OM2CLT]: 8=FIX.4.4|9=193|35=D|49=W_TCLT1|56=W_SMTC1|34=2257|43=N|52=20170819-14:58:14.952|11=WARMUP1347249356|59=0|22=5|48=VODl.CHI|38=2|44=1.1|15=GBP|40=2|54=1|55=X|21=1|60=20170819-14:58:14.952|526=WARMUP13472493560|10=031|
10:58:14.952 [Warn]  WARMM_OM_2_SRV Slow consumer delayed write : 11 micros , numWrites=1
10:58:14.952 [info]   OUT [WARMM_OM_2_SRV]:  8=FIX.4.4|9=198|35=D|49=W_SMTE1|56=W_TEXE1|34=2204|43=N|52=20170819-14:58:14.952|11=WARMUP1347249356|59=0|22=5|48=VODl.CHI|38=2|44=1.1|15=GBP|40=2|54=1|55=X|21=1|60=20170819-14:58:14.952|526=WARMUP1347249356|528=P|10=026|
10:58:14.952 [info]    IN [WARMM_EXSIM]: 8=FIX.4.4|9=198|35=D|49=W_SMTE1|56=W_TEXE1|34=2204|43=N|52=20170819-14:58:14.952|11=WARMUP1347249356|59=0|22=5|48=VODl.CHI|38=2|44=1.1|15=GBP|40=2|54=1|55=X|21=1|60=20170819-14:58:14.952|526=WARMUP1347249356|528=P|10=026|
10:58:14.953 [info]   OUT [WARMM_EXSIM]:  8=FIX.4.4|9=200|35=8|49=W_TEXE1|56=W_SMTE1|34=2204|43=N|52=20170819-14:58:14.953|11=WARMUP1347249356|17=90WARMUP13472493561002203|37=9991002203|39=0|150=0|38=2|44=1.1|54=1|55=X|15=GBP|22=5|48=VODl.CHI|6=0|14=0|151=2|10=253|
10:58:14.953 [info]    IN [WARMM_OM_2_SRV]: 8=FIX.4.4|9=200|35=8|49=W_TEXE1|56=W_SMTE1|34=2204|43=N|52=20170819-14:58:14.953|11=WARMUP1347249356|17=90WARMUP13472493561002203|37=9991002203|39=0|150=0|38=2|44=1.1|54=1|55=X|15=GBP|22=5|48=VODl.CHI|6=0|14=0|151=2|10=253|
10:58:14.953 [Warn]  WARMM_OM2CLT Slow consumer delayed write : 9 micros , numWrites=1
10:58:14.953 [info]   OUT [WARMM_OM2CLT]:  8=FIX.4.4|9=200|35=8|49=W_SMTC1|56=W_TCLT1|34=2257|43=N|52=20170819-14:58:14.953|11=WARMUP1347249356|17=90WARMUP13472493561002203|37=9991002203|39=0|150=0|38=2|44=1.1|54=1|55=X|15=GBP|22=5|48=VODl.CHI|6=0|14=0|151=2|10=004|     [55,149,55]
10:58:14.953 [info]    IN [WARMM_CLIENTSIM]: 8=FIX.4.4|9=200|35=8|49=W_SMTC1|56=W_TCLT1|34=2257|43=N|52=20170819-14:58:14.953|11=WARMUP1347249356|17=90WARMUP13472493561002203|37=9991002203|39=0|150=0|38=2|44=1.1|54=1|55=X|15=GBP|22=5|48=VODl.CHI|6=0|14=0|151=2|10=004|
10:58:14.953 [Warn]  WARMM_CLIENTSIM Slow consumer delayed write : 12 micros , numWrites=1
10:58:14.953 [info]   OUT [WARMM_CLIENTSIM]:  8=FIX.4.4|9=193|35=D|49=W_TCLT1|56=W_SMTC1|34=2258|43=N|52=20170819-14:58:14.953|11=WARMUP1347249357|59=0|22=5|48=VODl.CHI|38=2|44=1.1|15=GBP|40=2|54=1|55=X|21=1|60=20170819-14:58:14.953|526=WARMUP13472493570|10=036|
10:58:14.954 [info]    IN [WARMM_OM2CLT]: 8=FIX.4.4|9=193|35=D|49=W_TCLT1|56=W_SMTC1|34=2258|43=N|52=20170819-14:58:14.953|11=WARMUP1347249357|59=0|22=5|48=VODl.CHI|38=2|44=1.1|15=GBP|40=2|54=1|55=X|21=1|60=20170819-14:58:14.953|526=WARMUP13472493570|10=036|
10:58:14.954 [Warn]  WARMM_OM_2_SRV Slow consumer delayed write : 10 micros , numWrites=1
10:58:14.954 [info]   OUT [WARMM_OM_2_SRV]:  8=FIX.4.4|9=198|35=D|49=W_SMTE1|56=W_TEXE1|34=2205|43=N|52=20170819-14:58:14.954|11=WARMUP1347249357|59=0|22=5|48=VODl.CHI|38=2|44=1.1|15=GBP|40=2|54=1|55=X|21=1|60=20170819-14:58:14.954|526=WARMUP1347249357|528=P|10=033|
10:58:14.954 [info]    IN [WARMM_EXSIM]: 8=FIX.4.4|9=198|35=D|49=W_SMTE1|56=W_TEXE1|34=2205|43=N|52=20170819-14:58:14.954|11=WARMUP1347249357|59=0|22=5|48=VODl.CHI|38=2|44=1.1|15=GBP|40=2|54=1|55=X|21=1|60=20170819-14:58:14.954|526=WARMUP1347249357|528=P|10=033|
10:58:14.954 [info]   OUT [WARMM_EXSIM]:  8=FIX.4.4|9=200|35=8|49=W_TEXE1|56=W_SMTE1|34=2205|43=N|52=20170819-14:58:14.954|11=WARMUP1347249357|17=90WARMUP13472493571002204|37=9991002204|39=0|150=0|38=2|44=1.1|54=1|55=X|15=GBP|22=5|48=VODl.CHI|6=0|14=0|151=2|10=003|
10:58:14.954 [info]    IN [WARMM_OM_2_SRV]: 8=FIX.4.4|9=200|35=8|49=W_TEXE1|56=W_SMTE1|34=2205|43=N|52=20170819-14:58:14.954|11=WARMUP1347249357|17=90WARMUP13472493571002204|37=9991002204|39=0|150=0|38=2|44=1.1|54=1|55=X|15=GBP|22=5|48=VODl.CHI|6=0|14=0|151=2|10=003|
10:58:14.954 [Warn]  WARMM_OM2CLT Slow consumer delayed write : 19 micros , numWrites=1
10:58:14.954 [info]   OUT [WARMM_OM2CLT]:  8=FIX.4.4|9=200|35=8|49=W_SMTC1|56=W_TCLT1|34=2258|43=N|52=20170819-14:58:14.954|11=WARMUP1347249357|17=90WARMUP13472493571002204|37=9991002204|39=0|150=0|38=2|44=1.1|54=1|55=X|15=GBP|22=5|48=VODl.CHI|6=0|14=0|151=2|10=010|     [25,86,57]
10:58:14.954 [info]    IN [WARMM_CLIENTSIM]: 8=FIX.4.4|9=200|35=8|49=W_SMTC1|56=W_TCLT1|34=2258|43=N|52=20170819-14:58:14.954|11=WARMUP1347249357|17=90WARMUP13472493571002204|37=9991002204|39=0|150=0|38=2|44=1.1|54=1|55=X|15=GBP|22=5|48=VODl.CHI|6=0|14=0|151=2|10=010|
10:58:14.955 [Warn]  WARMM_CLIENTSIM Slow consumer delayed write : 13 micros , numWrites=1
10:58:14.955 [info]   OUT [WARMM_CLIENTSIM]:  8=FIX.4.4|9=193|35=D|49=W_TCLT1|56=W_SMTC1|34=2259|43=N|52=20170819-14:58:14.955|11=WARMUP1347249358|59=0|22=5|48=VODl.CHI|38=2|44=1.1|15=GBP|40=2|54=1|55=X|21=1|60=20170819-14:58:14.955|526=WARMUP13472493580|10=043|
10:58:14.955 [info]    IN [WARMM_OM2CLT]: 8=FIX.4.4|9=193|35=D|49=W_TCLT1|56=W_SMTC1|34=2259|43=N|52=20170819-14:58:14.955|11=WARMUP1347249358|59=0|22=5|48=VODl.CHI|38=2|44=1.1|15=GBP|40=2|54=1|55=X|21=1|60=20170819-14:58:14.955|526=WARMUP13472493580|10=043|
10:58:14.955 [Warn]  WARMM_OM_2_SRV Slow consumer delayed write : 6 micros , numWrites=1
10:58:14.955 [info]   OUT [WARMM_OM_2_SRV]:  8=FIX.4.4|9=198|35=D|49=W_SMTE1|56=W_TEXE1|34=2206|43=N|52=20170819-14:58:14.955|11=WARMUP1347249358|59=0|22=5|48=VODl.CHI|38=2|44=1.1|15=GBP|40=2|54=1|55=X|21=1|60=20170819-14:58:14.955|526=WARMUP1347249358|528=P|10=038|
10:58:14.955 [info]    IN [WARMM_EXSIM]: 8=FIX.4.4|9=198|35=D|49=W_SMTE1|56=W_TEXE1|34=2206|43=N|52=20170819-14:58:14.955|11=WARMUP1347249358|59=0|22=5|48=VODl.CHI|38=2|44=1.1|15=GBP|40=2|54=1|55=X|21=1|60=20170819-14:58:14.955|526=WARMUP1347249358|528=P|10=038|
10:58:14.955 [info]   OUT [WARMM_EXSIM]:  8=FIX.4.4|9=200|35=8|49=W_TEXE1|56=W_SMTE1|34=2206|43=N|52=20170819-14:58:14.955|11=WARMUP1347249358|17=90WARMUP13472493581002205|37=9991002205|39=0|150=0|38=2|44=1.1|54=1|55=X|15=GBP|22=5|48=VODl.CHI|6=0|14=0|151=2|10=009|
10:58:14.955 [info]    IN [WARMM_OM_2_SRV]: 8=FIX.4.4|9=200|35=8|49=W_TEXE1|56=W_SMTE1|34=2206|43=N|52=20170819-14:58:14.955|11=WARMUP1347249358|17=90WARMUP13472493581002205|37=9991002205|39=0|150=0|38=2|44=1.1|54=1|55=X|15=GBP|22=5|48=VODl.CHI|6=0|14=0|151=2|10=009|
10:58:14.955 [Warn]  WARMM_OM2CLT Slow consumer delayed write : 5 micros , numWrites=1
10:58:14.955 [info]   OUT [WARMM_OM2CLT]:  8=FIX.4.4|9=200|35=8|49=W_SMTC1|56=W_TCLT1|34=2259|43=N|52=20170819-14:58:14.955|11=WARMUP1347249358|17=90WARMUP13472493581002205|37=9991002205|39=0|150=0|38=2|44=1.1|54=1|55=X|15=GBP|22=5|48=VODl.CHI|6=0|14=0|151=2|10=016|     [32,56,23]
10:58:14.955 [info]    IN [WARMM_CLIENTSIM]: 8=FIX.4.4|9=200|35=8|49=W_SMTC1|56=W_TCLT1|34=2259|43=N|52=20170819-14:58:14.955|11=WARMUP1347249358|17=90WARMUP13472493581002205|37=9991002205|39=0|150=0|38=2|44=1.1|54=1|55=X|15=GBP|22=5|48=VODl.CHI|6=0|14=0|151=2|10=016|
10:58:14.956 [Warn]  WARMM_CLIENTSIM Slow consumer delayed write : 25 micros , numWrites=1
10:58:14.956 [info]   OUT [WARMM_CLIENTSIM]:  8=FIX.4.4|9=193|35=D|49=W_TCLT1|56=W_SMTC1|34=2260|43=N|52=20170819-14:58:14.956|11=WARMUP1347249359|59=0|22=5|48=VODl.CHI|38=2|44=1.1|15=GBP|40=2|54=1|55=X|21=1|60=20170819-14:58:14.956|526=WARMUP13472493590|10=039|
10:58:14.956 [info]    IN [WARMM_OM2CLT]: 8=FIX.4.4|9=193|35=D|49=W_TCLT1|56=W_SMTC1|34=2260|43=N|52=20170819-14:58:14.956|11=WARMUP1347249359|59=0|22=5|48=VODl.CHI|38=2|44=1.1|15=GBP|40=2|54=1|55=X|21=1|60=20170819-14:58:14.956|526=WARMUP13472493590|10=039|
10:58:14.956 [Warn]  WARMM_OM_2_SRV Slow consumer delayed write : 8 micros , numWrites=1
10:58:14.956 [info]   OUT [WARMM_OM_2_SRV]:  8=FIX.4.4|9=198|35=D|49=W_SMTE1|56=W_TEXE1|34=2207|43=N|52=20170819-14:58:14.956|11=WARMUP1347249359|59=0|22=5|48=VODl.CHI|38=2|44=1.1|15=GBP|40=2|54=1|55=X|21=1|60=20170819-14:58:14.956|526=WARMUP1347249359|528=P|10=043|
10:58:14.956 [info]    IN [WARMM_EXSIM]: 8=FIX.4.4|9=198|35=D|49=W_SMTE1|56=W_TEXE1|34=2207|43=N|52=20170819-14:58:14.956|11=WARMUP1347249359|59=0|22=5|48=VODl.CHI|38=2|44=1.1|15=GBP|40=2|54=1|55=X|21=1|60=20170819-14:58:14.956|526=WARMUP1347249359|528=P|10=043|
10:58:14.956 [info]   OUT [WARMM_EXSIM]:  8=FIX.4.4|9=200|35=8|49=W_TEXE1|56=W_SMTE1|34=2207|43=N|52=20170819-14:58:14.956|11=WARMUP1347249359|17=90WARMUP13472493591002206|37=9991002206|39=0|150=0|38=2|44=1.1|54=1|55=X|15=GBP|22=5|48=VODl.CHI|6=0|14=0|151=2|10=015|
10:58:14.956 [info]    IN [WARMM_OM_2_SRV]: 8=FIX.4.4|9=200|35=8|49=W_TEXE1|56=W_SMTE1|34=2207|43=N|52=20170819-14:58:14.956|11=WARMUP1347249359|17=90WARMUP13472493591002206|37=9991002206|39=0|150=0|38=2|44=1.1|54=1|55=X|15=GBP|22=5|48=VODl.CHI|6=0|14=0|151=2|10=015|
10:58:14.956 [Warn]  WARMM_OM2CLT Slow consumer delayed write : 7 micros , numWrites=1
10:58:14.956 [info]   OUT [WARMM_OM2CLT]:  8=FIX.4.4|9=200|35=8|49=W_SMTC1|56=W_TCLT1|34=2260|43=N|52=20170819-14:58:14.956|11=WARMUP1347249359|17=90WARMUP13472493591002206|37=9991002206|39=0|150=0|38=2|44=1.1|54=1|55=X|15=GBP|22=5|48=VODl.CHI|6=0|14=0|151=2|10=013|     [30,65,20]
